:020000041000EA
:10000000002008205D0100101B0100101D010010E0
:100010001101001011010010110100101101001058
:100020001901001019010010190100101F01001022
:10003000110100101901001021010010230100100E
:100040001101001011010010110100101101001028
:100050001101001011010010110100101101001018
:100060001101001011010010110100101101001008
:1000700011010010110100101101001011010010F8
:1000800011010010110100101101001011010010E8
:1000900011010010110100101101001011010010D8
:1000A00011010010110100101101001011010010C8
:1000B00011010010110100101101001011010010B8
:1000C00011010010110100101101001011010010A8
:1000D0001101001011010010110100101101001098
:1000E0001101001011010010110100101101001088
:1000F0001101001011010010110100101101001078
:100100001101001011010010110100101101001067
:10011000EFF30580103800BE00BE00BE00BE00BE7A
:1001200000BE00BEF2EB8871A0770010C07700100F
:10013000A001001090A31AE7D3DEFFFF42012110B7
:10014000FF010000488B0000793512AB4FF0000032
:100150001E49086006C881F3088810474FF05040D8
:10016000006810B14FF00000F2E70DA40ECC00299A
:1001700002D000F012F8F9E71549164A002000E015
:1001800001C19142FCD11449884714498847144958
:10019000884700BEFDE701C901C29A42FBD3704700
:1001A000C077001010010020D0150020808C0010B6
:1001B0000000082000000820808C0010001008209B
:1001C00000100820000000007047000008ED00E06B
:1001D000D0150020E4CB00203D4100106103001049
:1001E00035410010F8B500BF0348044B834202D0EC
:1001F000034B03B118477047D0150020D0150020DD
:1002000000000000064B0749C91A891048BF013198
:10021000491003D0044B0BB101481847704700BF89
:10022000D0150020D01500200000000010B5064CAD
:10023000237843B9FFF7D8FF044B13B10448AFF359
:1002400000800123237010BD58170020000000001B
:100250000872001008B5044B1BB104490448AFF301
:100260000080BDE80840CDE7000000005C170020DA
:100270000872001030B504460D4685B0039200F0B8
:100280006BFF2946204600F091FF084A214612687C
:10029000039B009206482A4604F032F901222946BF
:1002A000204605B0BDE8304000F0A4BF4425002042
:1002B000087200100F280B4601D81B0600D57047A6
:1002C000002200F097BF00BF2DE9F047DFF88880DB
:1002D00000F020FADFF8849008F5206705E008F6C2
:1002E0001C28C84507F61C2731D098F80030002B91
:1002F000F5D04546D8F8046002E01435AF42EED0A0
:100300002B7F002BF9D06B7F002BF6D0AA6A002A36
:10031000F3D0EB6A002BF0D0002AD5F820A0ECDD5A
:100320006C6A002BE9DD21463246504600F0A8F900
:10033000686AEB6A0134C218A242F4DC2A6AA96A2C
:100340000AF1010A0A449245D7DA0446E9E7BDE812
:10035000F04700F0CFB900BF4825002008C70020B3
:100360002DE9F84F04F00EF8764804F04BF800F051
:10037000FDF800F0D7F900F051FA00F0C1FE1920A5
:1003800000F0A0FF0125192345EC4430032000F0C4
:1003900099FF0024032044EC44002246294600F043
:1003A00067FF06F0A9FD1A201F2100F043FF664DEC
:1003B000224621461A2000F05BFF21461A2000F059
:1003C00071FF2B68614803F47043036022461A21D1
:1003D0005F4804F095F85F4FDFF888A15E4EDFF8C4
:1003E00088811EE000234FF47A7206F0CDFE0446A9
:1003F0003B68E31A0F2B1FD800F02EFA01F0DEFE47
:10040000002932D000234FF47A7206F0BDFE336823
:10041000C31AB3F5FA7F30D84FF050446368190718
:100420003FD501F0CBFE0029DCD1A8FB00239C09BD
:100430003B68E31A0F2BDFD90423484A13602B686B
:10044000D805FCD56B68C3F30B138AF80030EFF3C3
:10045000108B72B6FFF738FF8BF310883C6000F00A
:10046000FBF901F0ABFE0029CCD1A8FB00239809D1
:100470003368C31AB3F5FA7FCED94FF0007320EE7C
:10048000103001F09BFE0346002956D04FF47A72DB
:10049000002306F079FE4FF050443060636819077E
:1004A000BFD42F4803F0AEFF63681A0705D40A20B3
:1004B00001F0EAFD63681B07F9D500F037FE002460
:1004C0004FF0000B06F000FE814606F0FDFDD9F16D
:1004D000000202F07F0209F07F0158BF5142424200
:1004E00002F07F0200F07F0058BF5042000240EA55
:1004F000014906F0E9FD0246D2F1000C0CF07F0C38
:1005000002F07F0258BFCCF10002584621460BF1A1
:10051000010B42EA090200F0B3F8BBF1200FD1D180
:100520000134102CCCD100F0E5F8FA2001F0ACFD3C
:1005300000F0F0F800F0DEF873E7A8FB0330800964
:10054000A9E700BF3872001000000A4000100A40FE
:100550004C7200107C1F0020781F002000200A40F1
:1005600078720010F8100020D34D621070B54FF46F
:10057000006288B00021374806F04CFD3649374804
:1005800006F08AFB06210446022000F053FE0123F8
:10059000022200210093314806F002FC4FF4803221
:1005A0002F48E11CE30143EA01332E4923F0C04305
:1005B0000790052005930691049201F08FFF07EE46
:1005C000900A9FED296AB8EE677ADFED286AC7EED8
:1005D000067A77EEA67ABCEEE77A17EE103A98B272
:1005E000002834D007EE100AB8EEC77ADFED206A93
:1005F00077EEC77A67EEA67AFCEEE77ACDED037A5E
:100600009DF80C301B02154D43EA004022460021A4
:1006100004AB0490284606F00BFC01202B68154E15
:1006200003432B6006F058FC4FF40071124B094D48
:1006300003EA403343F01902104C830103F1A04355
:100640001D6030605C6099601A6108B070BD03463F
:10065000D9E700BF74170020A072001000002050DE
:1006600000080020000006700024F44A0000003B4F
:1006700000008043741F0020FDFF01FC100020508B
:100680001F2831D80F292FD8072910B425DDC30022
:10069000C007A1F1080103F5807301D5C1F107017D
:1006A0001248194490F800C0C2F30743D0B20CFBC3
:1006B00003F3C2F307220CFB00F00CFB02F203F47D
:1006C0007F4343EA10231212094C43EA02431B0200
:1006D00044F821305DF8044B7047C0F11F00C40797
:1006E0004FEAC003DAD4DBE7704700BFF810002000
:1006F00074170020054A064B1268920102F1A042CD
:10070000D36313695B01FCD4704700BF741F0020E2
:10071000741700204FF400620021014806F07ABCF3
:10072000741700202DE9F04784B06C46374BDFF892
:10073000E4800FCB84E80F00DFF8DCA0344D04AF79
:1007400054F8046B4FF400620021404606F062FC4E
:100750009AF80020C6F3074EF1B2C6F3072302FB56
:100760000EFE02FB01F102FB03F300220EF47F4EAA
:100770004EEA112E1B124EEA034E4FEA0E2602F0ED
:100780001F03C3F11F005111DB00FF2A4FEAC00C09
:10079000A1F1080903F580730ADC10F0010FC1F123
:1007A00007030CBF8C449C4448F82C600132E6E7F8
:1007B000D10748BFC9F1070901324B44B2F5007FA8
:1007C00048F82360DBD12B689B0103F1A043C3F8F9
:1007D0003C80196911F08069FBD14FF4FA7001F087
:1007E00053FCA742ACD14FF400624946094806F0D9
:1007F00011FC2A68920102F1A042C2F83C80136900
:100800005801FCD404B0BDE8F08700BF907200101E
:10081000741F002074170020F810002010B50D4C34
:1008200047F61221204601F00BFD0221002000F0C6
:1008300001FD0221012000F0FDFC204608210023DB
:10084000012201F07FFD2046BDE81040012101F0AA
:10085000AFBD00BF000007402DE9F047524D82B008
:10086000AB69DA0629D4514FDFF85881DFF8589187
:10087000AC6914F01004FBD1D5F800A05FFA8AF639
:10088000F82E1DD031464A4803F03AFEF72E17D80D
:10089000324698F80010474803F032FE3B78FBB927
:1008A0001AF0800F12D198F80030012B42D0022BA1
:1008B00027D0CBB1AB69DB06DAD502B0BDE8F08753
:1008C0003B78002BF6D11AF0800FECD0F02E45D0FB
:1008D000F72EEFD8EF2E39D90022374B1A70E9E7FF
:1008E000F72EE7D13C70E5E7334B1B78002BE1D0C6
:1008F000324A89F80060137003F0E003C02B21D165
:1009000014E02E4B009693F800A02D480AF0F00456
:100910000AF00F0A2246514699F8003003F0F0FD24
:10092000902C27D0B02C2CD0802C1DD0002388F800
:100930000030BFE7214B89F800601B7803F0E0032B
:10094000C02BF3D0022388F80030B3E7012388F8E6
:1009500000301A4B1E70184B1E70ABE701230021AC
:10096000154A3B701170A5E7504699F80010FFF743
:10097000A1FCDBE799F8001086B95046FFF79AFC16
:10098000D4E799F800307B2BD0D10024E1B2504657
:100990000134FFF78FFC802CF8D1C7E73246504670
:1009A000FFF768FCC2E700BF00000740D8CB00207B
:1009B000B0720010BC720010D5CB0020D4CB002048
:1009C000D4720010D7CB0020D6CB00202DE9F04FF9
:1009D0009BB00EAC84E80F00DDE92448002C40F306
:1009E000E280012C014613460F98119A00F0D58041
:1009F00093424FEA640580F2D98002FB05FC9CFB20
:100A0000F4FCA2EB0C070CEB000204926246CDE969
:100A10000231012D00F0D8809A424FEAA40A40F337
:100A2000548102FB0AFC9CFBF5FCA2EB0C02059234
:100A300000EB0C020992624606930891BAF1010F8D
:100A400000F051819A424FEAE40900F3618103FB0F
:100A500009FC9CFBFAFCA3EB0C030A9301EB0C03CF
:100A60000C9363460B920D90B9F1010F00F09E813B
:100A70009A424FEA241B129100F3B6811592199203
:100A80000BFB03F292FBF9F211449B1A139017909F
:100A9000169114921893AAEB09021646CDE900B8F4
:100AA00012AB07920FCBFFF791FF08EB8B0301937B
:100AB000A9EB0B0300931AAB13E90F00FFF786FFB6
:100AC000002E30DD08EB8909079B012B00F0AC817B
:100AD00018464FEA630BDDE90A23934200F3718164
:100AE0001593199302FB0BF30D9993FBF0F31391FC
:100AF000179111460C9E14939A191692CA1A1296BF
:100B00001892CDE900B912AB0FCBFFF75FFF079B3F
:100B100009EB8B02A3EB0B03CDE900321AAB13E90F
:100B20000F00FFF753FFA5EB0A09B9F1000F2EDD07
:100B300008EB8A0AB9F1010F00F06B81DDE905329B
:100B400093424FEA690B00F314811593199302FB4A
:100B50000BF3099993FBF9F3139117911146089838
:100B600014931A181692CA1A12901892CDE900BA64
:100B700012AB0FCBFFF72AFF0AEB8B02A9EB0B039B
:100B8000CDE900321AAB13E90F00FFF71FFF641B1A
:100B9000002C08DD08EB85081DE0D8F80040C4E90A
:100BA0000010C4E902321BB0BDE8F08F03FB05FC66
:100BB0009CFBF4FCA3EB0C03029301EB0C030393EB
:100BC00017466346049024E758F8045B013CC5E9E6
:100BD0000010C5E90232012C00F0DE80029A4FEAD3
:100BE0006409974264DD07FB09F393FBF4F1DDE947
:100BF000023A049A7F1A01EB020BB9F1010F7CD083
:100C000099424FEAA40500F39180049A0398139245
:100C1000179203FB05F292FBF9F2159119919B1AB9
:100C200011181290169114921893CDE9005812AB36
:100C30000FCBFFF7CBFE08EB8503A9EB050501936E
:100C400000951AABA4EB090413E90F00FFF7BEFEF1
:100C5000002CA8DD08EB8905012C00F0D380029957
:100C60004FEA64098F4272DC01FB09F393FBF4F352
:100C7000CDE912AB03EB0A02CE1ACDF85CB01597A2
:100C80001997169214931896CDE9009512AB0FCBD5
:100C9000FFF79CFE05EB8905A4EB0904CDE924458B
:100CA0001AAB13E90F001BB0BDE8F04FFFF78EBE83
:100CB00002FB09F393FBF4F3D21A0292039A39462A
:100CC000DDF810B003EB020A97E703FB0AFC9CFB7C
:100CD000F5FCA3EB0C03069301EB0C0308930592C0
:100CE00063460990AAE6C2465AF804CB05F1FF39DB
:100CF000CCE90010CCE902321CE74546039855F8D0
:100D0000042B013C10600498D160C2E90103A3E701
:100D100009FB02FC9CFBFAFCA2EB0C020B9200EB21
:100D20000C020D920A9362460C919DE6039A189369
:100D300012921692049ACDE9132305FB01F393FB5B
:100D4000F9F39A18C91A1792159319916DE709FBCF
:100D500007F393FBF4F303EB0B02FF1ACDE913B196
:100D6000CDF848A0CDF858A018911792159319976F
:100D70008AE71946089B099A12931693069B1392C9
:100D8000149318930BFB01F393FBF9F39A18179242
:100D9000CA1A15931992E9E6D8F80030039A1A6036
:100DA000049A5A60029AC3E90227FCE6C14659F840
:100DB00004CB0AF1FF36CCE90010CCE902320796E9
:100DC00082E619460C9B0D9A129316930A9B139276
:100DD0001493189301FB0BF393FBF0F39A181792FB
:100DE000CA1A159319928CE6CDE9130318930BFBDD
:100DF00002F393FBF9F31844D21A16911790159346
:100E0000199248E62B68029AC3E900ABC3E90227AE
:100E1000C9E6DAF80030089A1A60099A5A60069A08
:100E20009A60059ADA60B2E6D9F800300C9A1A6036
:100E30000D9A5A600A9A9A600B9ADA6073E600BFBC
:100E40002DE9F0479A4BADF5267D1E7826B1012697
:100E500003F108021693069293F81C3A4BB1954B96
:100E600016AF06AC03F1080247F8263044F82620F6
:100E70000136914B93F8382452B103F5876216AFCF
:100E800047F8262006AC03F5886244F82620013690
:100E900093F8543E4BB1894B16AF06AC03F10802F0
:100EA00047F8263044F826200136854B93F8702801
:100EB00052B103F5076216AF06AC03F6780347F8A4
:100EC000262044F8263001367E4B93F88C2252B10E
:100ED00003F5237216AF47F8262006AC03F52572FA
:100EE00044F82620013693F8A83C4BB1764B16AF58
:100EF00006AC03F1080247F8263044F826200136F4
:100F0000724B93F8C42652B103F2C46216AF06AC1A
:100F100003F2CC6347F8262044F8263001366C4BA8
:100F200093F8E02052B103F1E00216AF47F8262013
:100F300006AC03F1E80244F82620013693F8FC3AA7
:100F40004BB1644B16AF06AC03F1080247F82630EC
:100F500044F826200136604B93F8182552B103F56A
:100F6000A36216AF47F8262006AC03F5A46244F846
:100F70002620013693F8343F4BB1584B16AF06ACE0
:100F800003F1080247F8263044F826200136544B76
:100F900093F8502952B103F5156216AF06AC03F66B
:100FA000581347F8262044F8263001364D4B93F865
:100FB0006C2352B103F55B7216AF47F8262006ACDE
:100FC00003F55D7244F82620013693F8883D002B26
:100FD00057D0454B16AF03F1080247F8263093F877
:100FE0001C3A06AC44F826200136002B57D03F4B64
:100FF00002AD03F1080247F826303D4B44F82620A5
:101000000FCB85E80F00013631463A4803F078FAF5
:10101000CDE9006495E80F00FFF7D8FC4FF0000819
:10102000DFF8D89026AD002457F804AB0AF120036E
:101030000AF5226213F8041C11B145F8243001347A
:1010400014339342F6D13CB908F10108B045EAD116
:101050000DF5267DBDE8F08741462246484603F05F
:101060004FFACDE900450AF1080A08F101089AE8AB
:101070000F00FFF7ABFC4645D5D10DF5267DBDE849
:10108000F0871D4B93F8A4377BB9194B02AD0FCBFA
:1010900085E80F00002EDBD016AF06ACB4E7144B8A
:1010A00002AD0FCB85E80F00AEE716AF06AC9EE7AA
:1010B00048250020642F0020483500209C43002054
:1010C0004845002048550020F06100204865002078
:1010D0004875002044800020488500207C94002032
:1010E0004895002048A50020D0B20020ECBC00208C
:1010F000587300100073001048B5002024730010CE
:1011000008B54AF2C0120021054805F083FF00220D
:10111000044B05481A60BDE8084003F073B900BFEE
:1011200048250020442500204873001008B54AF2E5
:10113000C0120021054805F06DFF0022044B054850
:101140001A60BDE8084003F05DB900BF48250020E3
:1011500044250020487300100F281DD840F61C239A
:1011600000FB03F30E4AD15C02EB030CA1B900B5FE
:101170004FF0010ECCF8181002F803E009490A4BB1
:1011800053F820200B68CCF8042073440B6023B183
:101190005DF804EBFFF754BE70475DF804FB00BF39
:1011A0004825002044250020687300100F281BD814
:1011B0007F2919D840F61C2202FB00F00B4B01EBF3
:1011C000810100EB81015A18127F6AB94FF0010CBE
:1011D00018441944064B1A68A1F81CC0836963447B
:1011E00083610AB1FFF72CBE704700BF482500207D
:1011F000442500200F2814D87F2912D840F61C2C33
:101200000CFB00F010B4094C094B01EB810100EB21
:10121000810024681844427724B15DF8044BFFF73D
:101220000FBE70475DF8044B704700BF4425002097
:101230004825002010B44FF480740C4B53F8202044
:1012400003EB8003C00082F0400200F1804003F510
:10125000805C02F0C00200F5203003F54053CCF86A
:10126000002041601C605DF8044B7047048003401F
:10127000002915BF0C2104214FF0080C4FF0000C81
:10128000002A08BF6146064B53F8202003EB800379
:101290004A4003F5805302F00C021A60704700BF09
:1012A00004800340402221B1044B800003441A60B3
:1012B0007047034B800003441A60704704A003404A
:1012C00004B0034030B4002343EC440043EC40003E
:1012D00005254FF480740B4BC20053F8201003EB2C
:1012E000800081F0400102F1804303F5203301F0DA
:1012F000C00200F5805100F540500A605D60046056
:1013000030BC7047048003400FB400B583B0049C28
:10131000074803F077F83CB105A92046019102F097
:10132000EFFE044803F06EF8012002F001FF00BF59
:10133000A873001034720010EFF3108072B6064BE1
:10134000D3E8CF1F01220029FAD1C3E8412F002999
:10135000F6D1BFF35F8F70472F2100200023034A8F
:10136000C2E88F3F80F31088704700BF2F21002014
:1013700070B5EFF3108572B6134CD4E8CFCF0126C9
:10138000BCF1000FF9D1C4E84C6FBCF1000FF4D1EF
:10139000BFF35F8F4FF0010C4FEAD10E01F007034E
:1013A0000CFA03F310F80EC01CEA030608D14CEA4D
:1013B000030300F80E30C4E88F6F85F3108870BD0A
:1013C0001046FFF7A1FF00BF2F210020F8B5EFF373
:1013D000108572B6234CD4E8CF7F0126002FFAD1B6
:1013E000C4E8476F002FF6D1BFF35F8F9A4227D82A
:1013F0000126D70810F807E002F0070C06FA0CFCEB
:101400001EEA0C0F00EBD2070DD125E04FEAD20EF9
:1014100010F80EE002F0070C06FA0CFC1EEA0C0FA6
:1014200000EBD20718D001329342EFD24FF0FF30D9
:101430000023C4E88F3F85F31088984207DBF8BD8E
:101440000023C4E88F3F85F310884FF0FF30002958
:10145000F5D00698FFF758FF4EEA0C0C104687F8B7
:1014600000C0E5E72F210020044A1078431CDBB2BE
:10147000172B88BF10231370704700BFF91000208E
:1014800010B5054C82B001461F2318220094034872
:10149000FFF79CFF02B010BDB873001010C700200A
:1014A0004FF0E022936843F000539360704700BF11
:1014B0000021044B03F12002C3E88F1F0133934244
:1014C000FAD17047242100204FF0E0234FF0803202
:1014D000C3F80024C3F80424C3F80824C3F80C2478
:1014E000C3F81024C3F81424C3F81824C3F81C2428
:1014F000C3F82024C3F82424C3F82824C3F82C24D8
:10150000C3F8302462B67047012300F01F029340F5
:10151000400941B1800000F1604000F56140C0F831
:10152000803103607047024A203042F82030704713
:1015300000E100E00123064A410952F8212000F0B1
:101540001F0003FA00F0104214BF18460020704735
:1015500000E100E001224309044900F01F0002FA03
:1015600000F0403341F82300704700BF00E100E085
:10157000054A10309268054B52F82000C01A2F28F7
:101580008CBF00200120704700ED00E0FC1000201F
:10159000F8B50D46EFF3108772B6124ED6E8CF2F8E
:1015A0000123002AFAD1C6E8423F002AF6D1BFF350
:1015B0005F8F0D4B00F110049B680C4A53F82430E8
:1015C000934203D0994201D001F096F8064B9B68F4
:1015D00043F82450BFF35F8F0023C6E88F3F87F3A3
:1015E0001088F8BD2D21002000ED00E01101001051
:1015F0002DE9F04F80468B46174683B0EFF31083FA
:1016000072B6DFF8D0A10093DAE8CF1F01230029DA
:10161000FAD1CAE8413F0029F6D1BFF35F8F664E89
:1016200096F90050002DC0F2A080644C05EB4503F4
:1016300004EB8300817908F11008317060499B0048
:101640008968994651F828E00646AEEB04012F2937
:101650004FEA450231D95B4B9E4540F0A2805A4B80
:1016600009F10209A144043BA3EB0903C3F34A03B4
:101670006FEAC3434FF421416FEAD343154424F882
:10168000251004EB85056B804BF60153AB80FF23DF
:1016900046F0010EEF71C5F808B0AB71484B9B687E
:1016A00043F828E0BFF35F8F0023CAE88F3F009B19
:1016B00083F3108803B0BDE8F08F2EF0010191F89C
:1016C00007C0BC452BD84FF42146E6523E4B09F1EA
:1016D00002062644043B09F104099B1BA1440E1F8A
:1016E000C771A6EB0906394FC6F34A063E4386800A
:1016F000C3F34A03364E3B4343804AF6AA250B46C2
:101700001B1B5B415D432D0DC0F808B0857140F097
:10171000010E0E60C2E7C079B8422BD9614691F93B
:10172000063003EB430004EB8000002B8446F2DA22
:101730004BF6015001930B1D043EF61AC6F34A0600
:101740006FEAC6466FEAD64602EB050CDFF88090DA
:10175000019B8D7104EB8C058E8044F82C90A88041
:10176000AB71EF71C5F808B098E700F0C5FF96F9C6
:1017700000505AE788880193400501F1040315D40D
:101780004FEA605C6FF007000CF1020CA0EB09005F
:1017900003EB4C0C001B6044C0F34A0040F4604073
:1017A000CAE7019200F0A8FF019A58E700F5FF1080
:1017B00000F5FF501F30E3E7DCCB0020FC100020D9
:1017C00000ED00E0110100102C11002000E0FFFFEF
:1017D000014880472D210020F0B5EFF30585EDB2DB
:1017E000EFF3108C72B62649D1E8CF2F0123002ADF
:1017F000FAD1C1E8423F002AF6D1BFF35F8F214EF4
:1018000040F0010EB4684AF6AA2354F825701E4A27
:101810000446A41A644163431B0D77455BB21BD099
:1018200092F906409C421CD092F912409C4223D06F
:1018300092F91E409C4221D092F92A409C4208BF56
:1018400003240FD0114A0024157813708571C1E864
:101850008F4F8CF31088F0BDB2680D4C42F82540D4
:10186000F0E7002404EB440402EB8402FF249471AB
:101870004BF601549480E5E70124F3E70224F1E7F5
:101880002D21002000ED00E0FC100020DCCB00202A
:101890001101001010B5074C82B00146052300224B
:1018A00000940548FFF792FD0028A8BFC0F133005F
:1018B00002B010BDD4730010E0CB0020014B1944DE
:1018C0000160704724210020F8B5124D124EB54238
:1018D0001FD22C462368FF277BB1FFF7C5FD0146C9
:1018E0002846FFF7EBFFA780BFF35F8F0834B442B1
:1018F0000FD223682546002BEFD1FFF7B5FD014637
:101900002846FFF7DBFF2771BFF35F8F0834B4422F
:10191000EFD3F8BDC8150020D015002010B504463F
:10192000FFF7A2FD01462046FFF7C8FFFF23237102
:10193000BFF35F8F10BD00BF10B504460120FFF755
:101940009FFD034B18442060BFF35F8F10BD00BFA5
:1019500024210020024B19440160BFF35F8F7047C0
:10196000242100200D4B1A68EFF3108172B6D2E8E3
:10197000CFCF0120BCF1000FF9D1C2E84C0FBCF170
:10198000000FF4D1BFF35F8F00221B68C3E88F2FD5
:1019900081F3108840BF002000217047B0CB0020A9
:1019A0002DE9F04F2DED028B85B0EFF30583DBB20F
:1019B000103B9A0818BF01224FF0010103F0030009
:1019C000AD4B00EB82020CBFAC4FAD4F53F8226021
:1019D00001FA00F207F541539FEDA58BB046019047
:1019E00000925A6035E0B8F804301B0440F1928050
:1019F00098F80630002B40F0DF80B8F90820002A64
:101A0000C0F22581D8F8143002EB420203EBC20287
:101A1000D2E90245B5F1FF3F08BFB4F1FF3F0DD059
:101A2000019B07EB8301BB6A0A69D21AE31A93424E
:101A300003D33B6A009A134200D10C61384600F090
:101A4000B5FB201A65EB0105012875F1000380F252
:101A5000FE80B8F90840009B002CFB63C3DBD8F87C
:101A600014A004EB440B38460AEBCB05D5E90296EB
:101A700000F09CFB484561EB06010029B3DB002E1A
:101A8000C0F2C3802B697F4A934200F0FD806A88D0
:101A9000B8F9080092B242EA0040696998470246E4
:101AA0000B4652EA030100F0B080002B80F2D58093
:101AB000B9EB020066EB0303C5E902033AF93B50B8
:101AC000002D90DBD8F814C005EB45010CEBC101EB
:101AD0008A68821ACA6863EB0202002A83DBA8F8CC
:101AE000085007E09568451BD56863EB0505002D98
:101AF00008DB1146B1F9006006EB4602002E0CEB44
:101B0000C202EFDA2AF83B600C80B8F804301B04FC
:101B10003FF56EAFD8F81030EFF3108272B6D3E80D
:101B2000CF0F01210028FAD1C3E8401F0028F6D1C9
:101B3000BFF35F8F4FF6FF70B8F804900023D8F81A
:101B400010100FFA89F9A8F80400C1E88F3F82F35A
:101B500010889945FFF64CAFBA46D8F8145008F1F2
:101B6000080B09EB490E05EBCE03D3E90267B8F980
:101B70000830DC46002B05DA0FE035F934308446B6
:101B8000002B0ADB03EB430405EBC400D0E902128F
:101B9000711A67EB0202002AEFDAACF8009035F90F
:101BA0003E9025F83E30B9F1000FDADA98F80630A9
:101BB0005746002B3FF421AF002388F80630B8F9D0
:101BC000083008F1080C5E1C41D01A46D8F81440C1
:101BD00003E08446591C3FF412AF03EB430104EBCE
:101BE000C10045881E462D0434F93130F1D59642A6
:101BF00080ED028BEED0ACF80030B8F8082024F865
:101C000031203246A8F80860E4E73AF83B30A8F8FB
:101C10000830D8F81030EFF3108272B6D3E8CF0F47
:101C200001210028FAD1C3E8401F0028F6D1BFF3F4
:101C30005F8FB8F80230D8F810102AF83B30002334
:101C4000A8F80240C1E88F3F82F31088CBE640BF7E
:101C500005B0BDEC028BBDE8F08F3846CDE902231C
:101C600000F0A4FA029A039B801843EB010323E7D8
:101C7000FFFFFFFFFFFFFFFF88CB002000000B40AE
:101C800000800B40A11900106B6918461A69029375
:101C900090470028B9D0029BD3E9002301E700BF99
:101CA0002DE9F84F364C25692DB1BDE8F84F0A21D2
:101CB0003448FFF703BEDFF8E480032603214046E3
:101CC00000F062FAC4F80C80FFF7CEFB4FF0504CE6
:101CD0002D4B26701844DCF800300F2163706369C7
:101CE00061801D834FF00405A3F878504FF005057F
:101CF000A3F890504FF00605A3F8A8504FF0070541
:101D00000E21206108274FF6FF724FF00A0EA3F84C
:101D1000C0504FF001094FF00C0C4FF0020B4FF088
:101D2000090A0D204FF00B05A3F868111749A2808E
:101D3000A3F808E1A160A3F848B0A3F8F0A0A3F8C5
:101D40002051A3F838C1A3F85001A3F83090A3F8AC
:101D50006060A3F8D8701A800D4B3046C8F8207028
:101D60000C49DC60FFF714FC49463046FFF7CCFB1A
:101D7000094B0A211F600348BDE8F84FFFF79EBDDD
:101D800044110020B0CB002024210020FFFF1000D0
:101D900088CB0020A119001040200B4000000B4010
:101DA00000487047441100202DE9F0419DF8205073
:101DB000044617461E4635B900F000FA874266EB26
:101DC0000101002957DB2169EFF3108072B6D1E8D9
:101DD000CF2F0123002AFAD1C1E8423F002AF6D1D1
:101DE000BFF35F8FB4F90220D4F814C002EB4201B4
:101DF000002A4FEAC10E0CEBC10102DB3CF80E30A9
:101E000063804FF000082369C3E88F8F80F3108848
:101E1000424533DB4888069B0130C0F30E000128A1
:101E200038BF01200B61079B48804B61C1E90276F6
:101E300040EA02402369EFF3108172B6D3E8CF6F16
:101E40000125002EFAD1C3E8465F002EF6D1BFF37C
:101E50005F8FA3882CF80E30A2802369C3E88F8F90
:101E600081F310880122E368217803F501538A4049
:101E70005A60BDE8F0812846BDE8F0814FF0FF30A0
:101E8000F7E700BF0146F0B50069EFF3108772B6BF
:101E9000D0E8CF5F0124002DFAD1C0E8454F002DD6
:101EA000F6D1BFF35F8FB1F902E04C690EEB4E0C37
:101EB0004FEACC06BEF1000FA8BFA05B4FF00005B3
:101EC000A8BF488004EBCC0C0869C0E88F5F87F39B
:101ED0001088AE4535DBBCF80200CCE902230130A6
:101EE000C0F30E00012838BF0120059BACF80200AA
:101EF000CCF81030069B40EA0E40CCF814300B6949
:101F0000EFF3108272B6D3E8CFCF0127BCF1000FF8
:101F1000F9D1C3E84C7FBCF1000FF4D1BFF35F8F60
:101F20008B88A353A1F804E00B69C3E88F5F82F3A9
:101F300010880122CB68097803F501538A405A6062
:101F4000F0BD4FF0FF30F0BD4289B2EB214F38DDDC
:101F500042690B1403EB430310B502EBC30304699E
:101F6000EFF3108C72B6D4E8CFEF0122BEF1000F70
:101F7000F9D1C4E84E2FBEF1000FF4D1BFF35F8F4B
:101F80005A8889B292B28A4207D000230269C2E815
:101F90008F3F8CF31088184610BD42F400425A80DF
:101FA0000123002201698371C1E88F2F8CF310880F
:101FB000C268017802F5015203FA01F11846516036
:101FC00010BD0020704700BF407870472DE9F041F8
:101FD000861F41F1FF35B04271EB050338BF002683
:101FE00082B038BF354604460F4600F0E7F8301A95
:101FF00065EB0101012871F1000306DA204639463C
:1020000002B0BDE8F04100F009B900F0D7F886420F
:1020100065EB010100290ADB0021174B32460093D2
:1020200016482B460191FFF72DFF0028E6DB4FF005
:10203000000C1348134A436A9D4204D8816AB14296
:10204000DCD29D42DAD11368EFF3108172B6D3E887
:10205000CF8F5FF0010EB8F1000FF8D1C3E848EF61
:10206000B8F1000FF3D1BFF35F8F1368C3E88FCFD0
:1020700081F3108820BFDEE76519001044110020AD
:1020800000000B40B0CB002010B5044600F096F8DD
:102090004FF47A73E4FB0301BDE810400029BCBF94
:1020A0004FF0FF306FF00041FFF790BF2DE9F04394
:1020B00007460E4683B0EFF30584E4B274B12F4BAC
:1020C000586A884203D2002003B0BDE8F0839B6ABF
:1020D000BB4248D3012003B0BDE8F083284DD5F8BA
:1020E0000C9095F80080484600F060F808F104086C
:1020F00059F828301B1A381A66EB0101984271F121
:1021000000030DDB20BF1D4B586A8642DBD89B6A5B
:10211000BB42DFD2301A18BF012003B0BDE8F08304
:1021200000F04CF8874266EB0101002913DB154BE8
:102130002846CDE900343A463346FFF7A3FE011E98
:1021400009DD0E4B5A6A964215D89B6ABB4210D3E2
:102150000B48FFF7F9FE094B586A8642B3D89B6AD1
:10216000BB42B7D2D6E7401A18BF012003B0BDE882
:10217000F0839642ECD120BFEAE700BF00000B409D
:10218000441100206519001010B4054B054C064A97
:10219000A04214BF1846581C5DF8044BFFF7E8B87E
:1021A00014C7002000800B40F0730010416A0B46FA
:1021B000826A416A8B42FAD110467047034B596AD2
:1021C0000A46986A596A9142FAD1704700000B405A
:1021D00010B4114A536A9C46946A536A6345FAD113
:1021E00000194B414FF0000228BF012212B14FF0FD
:1021F000FF33184608494A6A9A42FCD39A4207D1EB
:10220000054A02E0516A994202D1916A8142F9D3AA
:102210005DF8044B704700BF00000B40074A536A4B
:102220009942FCD8994207D1044B02E05A6A914284
:1022300002D19A6A8242F9D3704700BF00000B4076
:10224000F8B5054606200E4600F048F9002842D0B1
:10225000354A364895420CBF4FF000624FF080621D
:10226000334B344902601A608C6832EA0404FBD1B3
:102270002D4B4FF48071EB1AB3FA83F32E4A5B09AE
:1022800022F81310062000F029F9C000B0FBF6F682
:102290000136F30920D1402701226A62AB622E6B1E
:1022A000F30722D42B46002253F82C1F062003F5F7
:1022B000805422602E6300F011F9EB6A40F2013283
:1022C00083F0700303F07E03236080000323B0FBE0
:1022D000F7F02A63AB64F8BD4FF6FE7293421BD948
:1022E00023464FF6FF72154FD7E740F2013205F54E
:1022F00040531A636B6AAC6A062004EB831400F047
:10230000EDF80F4BA402A3FB0023DB0A0021B4FB72
:10231000F3F0FFF75DFFC5E7C6F345061A4606EB87
:1023200083173346B9E700BF008007400020024012
:102330000030024000000240BCCB0020C0FF3F0044
:10234000757B2B8F013A0539D200F8B5054642EA74
:10235000411433B144F00202012B14BF144644F07F
:1023600006042E6BF3070AD42B4653F82C1F4C405F
:1023700004F06E0403F580531C602E63F8BD40F238
:10238000013205F540531A636B6AAF6A062007EB0A
:10239000831700F0A3F8054BBF02A3FB0030C00A6F
:1023A0000021B7FBF0F0FFF713FFDDE7757B2B8F04
:1023B000F8B5066B00290CBF00251025F30704466D
:1023C0000AD4234653F82C2F554005F0100503F589
:1023D00080531D602663F8BD40F2013200F5405382
:1023E0001A63636AA76A062007EB831700F076F882
:1023F000054BBF02A3FB0030C00A0021B7FBF0F081
:10240000FFF7E6FEDDE700BF757B2B8F00EB400C8E
:102410004FEA8C0C0CF1804C0CF5803C70B5DCF86C
:102420000440A0F1040EB4F5803F38BF4FF480346F
:102430005FFA8EFE38BFCCF80440BEF1010F29D9F7
:102440004FF40066244D0CF54054266055F820608A
:10245000BEB9DCF800400CF5805684EA421202F066
:10246000E002BEF1010F326028D94FF4006145F857
:1024700020304FF480330CF500521160CCF804305A
:1024800070BD6C69B4FBF6F4013404EB4404033C06
:10249000FDD2DEE70129D3D103250CF54054256098
:1024A000DCF80840E407FBD5DCF800400CF580566A
:1024B00084EA421202F0E002074D32600122DCF8A9
:1024C00000404C4004F00304346002FA01F1DCF8EF
:1024D00008200A42FBD0C8E718C70020014B53F878
:1024E0002000704718C7002070B4039C05682403BF
:1024F00044EA03431B4C002DB4FBF1F4B2FBF4F2AD
:102500001FDB194D194CA8420CBF4FF400454FF486
:102510008045174E256004F580542560B46835EA7F
:102520000404FBD1212500F540540434016082608D
:1025300025600268002AFCDA0822C360226070BCB1
:102540007047046804F03F048C42DAD18468C4F315
:102550000B049442D5D1C46804F4EE249C42D0D13B
:10256000EDE700BF001BB7000080054000200240DF
:102570000000024030B44FF080441D4B1C60E0B1BD
:102580001C4CA3F54053DC611B4C40F0010044405F
:102590001C62596298624FF080454FF0E061144B25
:1025A0001648174C1D60846019604AB930BC4FF062
:1025B0000042A3F580531A607047124BD861EAE7D6
:1025C0004FF47A7303FB02F2B2F1807F09D20E4B13
:1025D0001A604FF0804130BC0A480C4B42601960D1
:1025E00070476FF07F4308491A460B60F1E700BF60
:1025F00000B00D40D3C007B02D3FF84F00A0014000
:10260000F3FFFF0100800D4078CB002000A00D40BB
:10261000012300EB4000800000F1804000F58410B1
:1026200041600360704700BF10B5002482B00B46C4
:10263000E48A002141E800F1CDE900034B0254BFD8
:102640001021042144F25220A047DDE900238646F0
:102650000A214FF48170F44602B0BDE81040604793
:102660000023DB8A002242E800F2520201D410214A
:1026700018470421184700BF08B50B46011E02DBAE
:1026800022B143F030031846FFF7CEFF43F020039A
:10269000F9E700BF034AD2F82838002BFBD0BFF37C
:1026A0005F8F704700000E400021044B044ABFF3C7
:1026B0005F8F43F8041B9342F9D170470C080E401A
:1026C0002C080E4010B44FF48D704FF42A64064A63
:1026D000064B07491460D06019605368002BFCDA80
:1026E0005DF8044B704700BF0080044000A0044028
:1026F00000B0FA00704700BF08B50148FEF704FEBD
:102700001474001038B5054C054DAC4204D254F891
:10271000043B9847AC42FAD338BD00BFC0710010EB
:102720000072001010B40748074C084B084A0949CA
:1027300004601A608B6832EA0303FBD15DF8044B36
:10274000704700BF002002407F3BEFEF00300240A7
:10275000F6FFF30300000240044BDB6CB3F5004FBF
:1027600003D14FF48022024BDA647047000011500D
:10277000002011504FF0E022044BD2F8881D0B438B
:10278000C2F8883D10EE3004704700BF03033000EC
:102790006FF06041044B054A19609368DB4333F0E6
:1027A0006043FAD1704700BF003002400000024091
:1027B00010B545F25320FFF753FFBDE81040034624
:1027C0000420184710B545F25320FFF749FFBDE834
:1027D0001040034601201847FEF76ABE70B52E4927
:1027E0002E4C2F4E641AA510442D2A4628BF442291
:1027F0003046920004F098FBB4F5867F47D805F187
:10280000010CBCF1440FC5F143013444C5F144004F
:1028100088BF012005296346224AC4F3800418D9E1
:10282000BCF1440F15D8ACB346F82520001B2C444E
:1028300006EB8403410803EBC101C3E9002208331E
:102840009942FAD120F0010398420CEB03051ED007
:102850006B1C442B46F8252019D0422D46F8232026
:1028600005F1020313D0412D46F8232005F103039F
:102870000DD0402D46F8232005F1040307D03F2D4D
:1028800046F8232005F1050301D046F82320064B26
:102890009E6070BDAC46C9E700000010100100103A
:1028A000000000201101001000ED00E00023F0B551
:1028B0002B4C83B0C4F88430FFF704FF0122294B6E
:1028C000DA63636C012BFCD10321264A244B11638C
:1028D0009D6B012DFCD1052302271E4600242946AD
:1028E000214A22480097FFF7FFFD29463346204A38
:1028F00020480096FFF7F8FD3946224604201E4B7B
:10290000FFF784FD2946224630461C4BFFF77EFD2B
:102910002246082021461A4BFFF778FD224609205F
:102920002146174BFFF772FD224606202146134B26
:10293000FFF76CFD114B224607202146FFF766FD8D
:102940000420FFF7CBFD0F4DA5FB0035AD0CE0B229
:1029500029460134FFF75CFE062CF8D103B0F0BD28
:102960000000014000300140002F68590000054080
:10297000008C864700800540001BB70080D1F0081E
:10298000006CDC0283DE1B4386B003B451FC0804F8
:10299000CDE9020151FC0904CDE9040151EC0A041E
:1029A000CDE9060103BCF047BDE800504EEC00C481
:1029B000BDE800504EEC01C4BDE800504EEC02C42E
:1029C00000BD000000B5FFF7DFFF02E010FE30F4AD
:1029D000F8D441EC100443EC112400EE010410EE95
:1029E000010480EE200451EC1004704700B5FFF79D
:1029F000CBFF02E010FE30F4F8D441EC100443ECBD
:102A0000112400EE010410EE210480EE200451ECAC
:102A10003004704700B5FFF7B7FF02E010FE30F456
:102A2000F8D410B541EC100443EC112451EC04042B
:102A300053EC0524A0FB024C5FF0000EE0FB03CE3C
:102A4000E1FB02CE4CEC20440024E1FB03E444EC27
:102A500030E480EE200451EC5004BDE81040704793
:102A600000B5FFF791FF02E010FE30F4F8D441EC1E
:102A7000100443EC112451EC2104A0FB01126FEA75
:102A8000820252FB100052FB12F252FB1000A0EB2C
:102A9000D07C53EC04245CFB13F153EC1524A1FB14
:102AA000022001FB030053EC4424A2EB000050FB86
:102AB0001CF24FEA111312EB017043EBE27140EA92
:102AC000515020EA915020F0070053EC7524A0FBF0
:102AD000023C53EC752400FB03CC01FB02CC53EC0D
:102AE0000424ACEB824C40EA5C70A0F1010041ECA4
:102AF000400480EE200451EC7004704700B5FFF7ED
:102B000043FF02E010FE30F4F8D440EC700400EE15
:102B1000010410EE210480EE200451EC30047047D3
:102B200000B5FFF731FF02E010FE30F4F8D440ECBE
:102B3000600400EE010410EE210480EE200451EC4C
:102B40003004704700B5FFF71FFF02E010FE30F4BD
:102B5000F8D441EC800400EE010410EE010480EE94
:102B6000400410EE1304704700B5FFF70DFF02E0BC
:102B700010FE30F4F8D441EC800400EE010410EEB5
:102B8000010480EE400410EE3304704700B5FFF7F7
:102B9000FBFE02E010FE30F4F8D441EC100443ECEC
:102BA000112400EE010410EE3004C0F300707047F1
:102BB00000B5FFF7E9FE02E010FE30F4F8D443EC74
:102BC000102441EC110400EE010410EE30F48CBF2F
:102BD00001200020704700BF00B5FFF7D5FE02E0DE
:102BE00010FE30F4F8D443EC102441EC110400EE54
:102BF000010410EE30F42CBF01200020704700BF0C
:102C000000B5FFF7C1FE02E010FE30F4F8D441EC4D
:102C1000100443EC112400EE010410EE30F42CBF3C
:102C200001200020704700BF00B5FFF7ADFE02E0B5
:102C300010FE30F4F8D441EC100443EC112400EE03
:102C4000010410EE30F48CBF01200020704700BF5B
:102C5000704700BF2DE9F84F9A460D9B17469A071B
:102C600006468B46DDF8288011D1DDE90B32934210
:102C70000DD213463C460B9A9D1A3D4422465346BC
:102C8000594620200134B047AC42F7D100E03D4620
:102C90000B9B73B108EB030404EB0509A9EB0402D9
:102CA00014F8010D53465946B0474445F6D10B9BE5
:102CB0001D440D9B9B070ED50C9BEF1BBB420AD9F5
:102CC0001C462A465346594620200137B047BC428D
:102CD00005F10105F5D82846BDE8F88F2DE9F04F3C
:102CE0000F9EDDF824E016F0020F0A9C9DF82C9050
:102CF0000E9DDDE90C872CD1002D74D1BC4206F06D
:102D0000010B80F0CB801F2C88BF202400F2C680EE
:102D100004F1FF3C4FF0300AF44401E0202C04D0D1
:102D20000134A7420CF801AFF8D8BBF1000F10D066
:102D3000A5420ED9202C2DD004F1FF3C4FF0300AD3
:102D4000F44401E0202C25D00134AC420CF801AF52
:102D5000F8D116F0100F38D016F4806F26D10CBBC6
:102D6000B8F1100F7FD0B8F1020F00F0928030243C
:102D70008EF800400124B9F1000F2BD02D270EF85A
:102D800004700134CDE90B56CDE909E4BDE8F04FFC
:102D9000FFF760BF16F0100F4FF02004F2D016F4CA
:102DA000806F03D1A74249D0A54247D0B8F1100F98
:102DB0004ED0B8F1020F39D0202CE3D04FF0300CB8
:102DC0000EEB040787F800C00134202CDAD0B9F1EB
:102DD000000FD3D177071DD43707D3D520270EF89E
:102DE00004700134CEE716F0010B0DD0B9F1000FDD
:102DF00022D116F00C0F1FD1BC4299D21F2C87D9BB
:102E0000202DC7D82024A4E7BC42A2D21F2C7FF6D5
:102E10007FAFF7E72B270EF804700134CDE90B568E
:102E2000CDE909E4BDE8F04FFFF714BF202CA9D08D
:102E30000EEB0407013440E0013DDDE7671E8FD053
:102E4000B8F1100F2FD0B8F1020F35D03C46B5E7DE
:102E5000B7060FD4202C95D00EEB040C0134782744
:102E60008CF80070A8E7B4060ED478248EF80040E1
:102E70000124A3E7202C85D04FF0580C0EEB04075B
:102E800087F800C0013497E758248EF800400124E9
:102E900094E762248EF8004001248FE7BBF1000F15
:102EA00008BF002555E716F0200FA4F10204E3D176
:102EB0000EEB040C3C46D2E777444FF0620C87F8E7
:102EC00000C079E700B9704701F05EBA10B1D1E9EE
:102ED00000311847704700BF2DE9F04F2DED048BEE
:102EE0009BB02A9CDDE9288909942B9C83461D46CA
:102EF0000D940C920C4642464B4640464946DDF83E
:102F0000B0A0FFF747FE002840F0D6804046494673
:102F10004FF0FF32744BFFF78BFE002840F0CC805F
:102F2000404649464FF0FF326FF48013FFF744FEEE
:102F3000002840F0C1804046494600220023FFF7A8
:102F40003BFE002840F0C181CDE90A89DDE90A2372
:102F50001F461AF4806316461193099B08BF062387
:102F6000099356EA070340F0C3801AF4006E00F09C
:102F7000A4819FED5B7B00238DED0E7B1093099B5D
:102F8000109A00269342D2BF0023A3EB020E0EF14B
:102F9000FF3309934AF4806A10960D9BB34294BFA5
:102FA00000279F1B1AF00203119302D0002E18BFB6
:102FB0000027109B3BB1DDE90A01DDE90E23FFF795
:102FC00053FDCDE90A014046494600220023FFF7A0
:102FD000F3FD30B1DDE90A01024601F10043CDE91C
:102FE0000A239DED0A7B099B8DED007B02932AF459
:102FF0000063049321462B4658460C9A039700F031
:103000009BF98046002E51D01AF0200F424614BF83
:10301000452065202B462146D847109A0DF1480CD3
:1030200082EAE273A3EBE2734FEAD27E00276246A4
:103030001846DFF8B89008F1010806F1FF3A01E000
:10304000202F0FD00646A9FB0031C90801EB8103F0
:10305000A0EB43033033092E084607F1010702F8BD
:10306000013BEDD80523002006930A234246CDE913
:10307000033021462B465846CDE9017ECDF814A0F9
:10308000CDF800C0FFF72AFE119B804673B10C9B60
:103090000D9FC61AB74209D942462B462146202029
:1030A0000136D847B74208F10108F5D840461BB0B1
:1030B000BDEC048BBDE8F08F0D9B21462B93584649
:1030C0002B46099C0C9ACDE92889CDF8B0A02A940A
:1030D0001BB0BDEC048BBDE8F04F00F02DB900BF74
:1030E0000000000000000000FFFFEF7FCDCCCCCC43
:1030F000C7F30A50A0F2FF30FFF704FD8AA3D3E91B
:103100000023FFF78BFC8AA3D3E90023FFF75EFCC3
:10311000C7F3130341EC180B43F07F5130460022F4
:103120007B4B41F44011FFF765FC6BA3D3E900230F
:10313000FFF774FC02460B4651EC180BFFF746FCF8
:10314000FFF704FD1090FFF7DDFC65A3D3E9002332
:1031500006460F46FFF762FC00226E4BFFF736FC77
:10316000FFF7F4FC0346394630460E935EA3D3E9DD
:103170000023FFF753FC06460E980F46FFF7C2FCEC
:103180005BA3D3E90023FFF749FC02460B46304618
:103190003946FFF72FFC02460B4606460F46FFF75F
:1031A0003DFC324641EC180B3B4630463946FFF7B2
:1031B0000DFC002241EC190B574B51EC180BFFF79B
:1031C00053FC0022554BFFF701FC02460B4651EC25
:1031D000180BFFF749FC0022514BFFF7F7FB0246A3
:1031E0000B4651EC180BFFF73FFC32463B460646B8
:1031F0000F4600204FF08041FFF7FCFB02460B46D4
:1032000030463946FFF7E2FB02460B4651EC190BFC
:10321000FFF72AFC0022434BFFF7D8FB0E9B00224E
:1032200003F2FF363305FFF7F9FB06460F46DDE9EB
:103230000A0132463B46CDE90E67FFF7BDFC60BB95
:1032400031463A46109B6333C72B34BF042605260C
:103250001AF4006F3FF4A1AE51EA02033FF48FAEBF
:10326000DDE90A0124A3D3E90023FFF7CDFC48B12F
:10327000DDE90A0122A3D3E90023FFF79DFC002822
:103280007FF47DAE099B002B3FF487AE119A002A94
:103290003FF483AE013B09937FE6109B0022013B84
:1032A000109330461D4B3946FFF7DEFB0B460246B6
:1032B0000146CDE90E231A46C4E79FED137B042691
:1032C0008DED0E7BCDF840E067E609F10043CDF8C7
:1032D00028800B933AE600BF61436F63A787D23F14
:1032E00071A379094F930A401655B5BBB16B0240E3
:1032F000EF39FAFE422EE63F2D431CEBE2361A3F31
:103300000000000080842E4100000000000000004A
:103310000000F83F0000E03F00002C400000244087
:10332000000018400000F03FFB799F501344D33F4A
:10333000B3C8608B288AC63F2DE9F04F2DED028B74
:1033400095B0DDE922450695249DDDE92067CDE9AC
:103350000701CDE90923304632463B4639460595FB
:10336000FFF718FC002840F0C481304639464FF082
:10337000FF326FF48013FFF71FFC002840F00D812F
:10338000304639464FF0FF32BF4BFFF751FC002863
:1033900040F0DD80B8A3D3E9002330463946FFF77B
:1033A00047FC002840F0C180B5A3D3E90023304694
:1033B0003946FFF701FC002840F0B7803046394617
:1033C00000220023FFF7F8FB002840F0DA802B46AC
:1033D0000B9013F4806F08BF06243021A2460CAB7B
:1033E000A4F1200206E00AF1FF3A524503F8011B5E
:1033F00000F03181BAF1090FA4EB0A05F3D8394680
:103400003046FFF7A3FBA14B044603EBCA0393ED41
:10341000008BFFF777FB02460B4630463946FFF735
:10342000E9FA53EC182BFFF7F9FA89468046FFF7C3
:103430009FFB8346FFF778FB02460B464046494612
:10344000FFF7D8FA0022924B80468946FFF7F0FB3F
:10345000002800F0F1800BF1010B5846FFF764FBE8
:1034600002460B4651EC180BFFF7BAFB10B14FF0B8
:10347000000B0134BAF1000F40F09A802046FFF7AC
:1034800041FB02460B4630463946FFF7B3FA0022AD
:103490007F4B06460F46FFF78FFB40B93046394653
:1034A00000227B4BFFF7C4FB002800F016816A1E48
:1034B0000CAB78491A44202D4FEAE47300F0938056
:1034C00081FB0460C3EBA00303EB8300A4EB400487
:1034D00004F1300001351C4602F8010F002BEAD13F
:1034E000059B03F00303012B00F08380202D0AD0FD
:1034F0000B9B002B00F0B1802D2205F150036B4493
:1035000003F8202C0135059B0CAC0393069B00941B
:10351000CDE90153DDE90701DDE90923FFF79AFB56
:1035200015B0BDEC028BBDE8F08F059BCDE920679F
:10353000DDE907012493069B22942393DDE9092307
:1035400015B0BDEC028BBDE8F04FFFF7C5BC05F030
:1035500004042395504D002C504C18BF2C46DDE937
:10356000070120940CBF03240424069B2293DDE969
:103570000923219415B0BDEC028BBDE8F04FFFF795
:1035800069BB01213B4632460B9100200021FFF729
:1035900031FA2B4606460F461BE7069C23952294DC
:1035A0000424DDE90923DDE907013D4D2095E0E72D
:1035B000681E0CAB3B4F18440FE0A7FB0B32D20840
:1035C00002EB8203ABEB43033033BBF1090F00F88E
:1035D000013F69D9B24693460D46202D0AF1FF36C8
:1035E00005F10101E9D1059B202503F00303012B1F
:1035F00089D1069B002B3FF479AF0B9B1BB9059B30
:1036000013F00C0F02D0069B013B0693069BAB42C6
:103610007FF66CAF202D0DD030226B1E0DEB02011A
:103620000B44069901358D4203F8012F3FF45EAF3C
:10363000202DF7D1202566E7404649460022144B4D
:10364000FFF7BAFA00287FF415AFBBF1000F4BD19A
:103650000BF1010B0EE72025D1E6059B5A0741D45B
:103660001B077FF550AF202205F1300313446B4454
:1036700003F8202C013546E70000000065CDCD4160
:103680000000000065CDCDC1FFFFEF7FD0740010BA
:103690000000E03F67666666B8740010B4740010FE
:1036A000C4740010CDCCCCCC20299CD05EB30CAB24
:1036B0005A1930200D460135202D02F8010F92D005
:1036C000EB430B4413EB0A0FF5D12E2205F1500307
:1036D0006B4403F8202C0135E9E6E1077FF5E7AEFE
:1036E0000134E4E62B2208E71BF0010F3FF4C2AEE1
:1036F000AEE7069C23952294044D0324DDE90923BB
:10370000DDE9070152E70D46DFE700BFC074001096
:103710002DE9F04F9BB0249C844D0994844C0F1EDE
:1037200018BF834625601878824D904608BFAB4687
:10373000002800F0C4821C464FF0000A0AE05246FE
:1037400043463946D8470AF1010A01342078002857
:1037500000F0C9802528F2D10021631C1C4613F813
:10376000010BA0F12002102A0AD8DFE802F03C0980
:103770000939090909090909093609330909300014
:10378000A0F13003092B40F290802A2800F0B98084
:1037900000252E2800F0988000230A93A0F16803EA
:1037A000122B27D8DFE813F01F0126001A0126008C
:1037B00027012600260026002600260026002600D7
:1037C000220026002600260026002600220041F0C6
:1037D0000101C3E741F00201C0E741F00401BDE788
:1037E00041F01001BAE741F00801B7E7607841F411
:1037F00080710134A0F12503532B00F28E80DFE8A5
:1038000013F01C018C008C008C008C008C008C0050
:103810008C008C008C008C008C008C008C008C0048
:103820008C008C008C008C008C008C008C008C0038
:103830008C008C008C008C008C008C008C008C0028
:103840008C00C5010201C5018C008C008C008C002D
:103850008C008C008C008C008C008C008C008C0008
:103860008C008C008C008C009B008C008C008C00E9
:103870008C008C008C008C008C008C009B008E01D6
:103880009B00C5010201C5018C009B008C008C00CF
:103890008C008C008C009B006E018C008C0026013B
:1038A0008C009B008C008C009B00002505EB85059F
:1038B00000EB450514F8010F303DA0F13003092B52
:1038C000F4D92E287FF468AF607841F48061A0F1CC
:1038D0003003092B04F1010240F23F812A2800F055
:1038E0004B81144658E75446D04501D808F1FF3AB9
:1038F0004346524639460020D84720461BB0BDE813
:10390000F08F099B607853F8045B0134002DBCBF35
:1039100041F002016D4209933BE752464346394666
:1039200001340AF1010AD84710E700BF113700102F
:1039300074CB0020512C0010782800F07A81582890
:1039400000F0C0816F2800F00E82622800F06A83C8
:1039500021F0100369284FF00A090B9340F006820A
:10396000490500F16D810B9B13F4007040F0088253
:1039700013F4807140F0E3825E06099A00F14982F7
:1039800013F0800F52F8043B00F097831BB20992AA
:1039900083EAE372A2EBE37292B2D80F0D90002B90
:1039A00040F065820B9820F0100340050B9340F126
:1039B0005E8212AB0C9352460B9BCDE905530A9BDA
:1039C000CDE903930D9BCDE901130C9B0093434676
:1039D00039465846FFF782F982467EE0607841F426
:1039E0000071013406E76078682800F0638141F0D7
:1039F00080010134FEE660786C2800F0568141F4C5
:103A000080710134F6E60A9B462808BF41F0200188
:103A10000293099BCDE90351073323F00705B5EC69
:103A2000027B52464346394658468DED007B099548
:103A3000FFF782FC0134824688E60AF10100524613
:103A400043468246394625200134D8477EE6099B05
:103A500053F8046B0D930A9B3078002B00F0D8804C
:103A6000002800F032835A1E0132B146324401E090
:103A7000914503D019F8013F002BF9D1A9EB0603BA
:103A8000099311F480630B9305D0DDE90932934269
:103A900028BF1346099311F002030C9300F04981EB
:103AA000002800F034810B9B002B00F0B7800A9BAC
:103AB00052465344994608E043463946D84716F8DB
:103AC000010F0AF1010A10B15246D145F4D10C9B05
:103AD000002B40F01C810D9B0993013436E60998B8
:103AE00050F8043B002B74D041F0210512AA164671
:103AF00000210C9202E0202974D0134603F00F0C31
:103B00006246BCF1090F94BF303237320F2B06F8F2
:103B1000012B01F101014FEA1312ECD862E08B078F
:103B200040F1DA80DDF82490524659F8040B434600
:103B30003946C0B2D847012D0AF1010688BFAA4410
:103B400040F2918132464346394620200136D8471B
:103B50005645F7D1CDF82490BFE7002303EB83034C
:103B600000EB430312F8010F303BA0F13004092CA5
:103B7000F4D914460A9311E6099BA07853F8042B54
:103B80000234099322EAE2730A9307E600F0DF03A6
:103B9000472B08BF00F0FD000A9B08BF41F40061FD
:103BA000452808BF41F020010293099BCDE903514C
:103BB000073323F00705B5EC027B524643463946EE
:103BC00058468DED007B0995FFF786F90134824652
:103BD000BCE521F010054E0545F0210586D51946B6
:103BE00012AB0C930A9B524604930C9B01910093D9
:103BF0000823059310230393002309900293394669
:103C0000434658460695FFF769F8013482469DE51C
:103C10006FF0010200287FF427AF31E75246434698
:103C20003946D84716F8010F0AF1010A0028F5D1E4
:103C30004DE74FF0100921F00C0349050B9303D514
:103C40000B9B23F001030B9369283FF48CAE64288F
:103C50003FF489AE0B9B13F4007040F0528113F4D3
:103C6000807140F0C6815E0640F1F080099B53F8F8
:103C7000042B0993D2B2002A40F01E810B9820F049
:103C8000100340050B9340F11781114612AB0C93C2
:103C90000B9B0191CDE905530A9BCDE90393524655
:103CA0000C9B00930023029391E6A07841F44071AD
:103CB00002349FE5A07841F0C00102349AE5044641
:103CC000824611E621F00C0343F020030B934B05D1
:103CD0004FF01009B4D4BDE7012D40F2F4810AF190
:103CE000FF331D4452464346394620200AF1010A5B
:103CF000D847AA45F6D1099E434656F8040B2A46F2
:103D00003946C0B2D84705F1010A0996E5E6099B94
:103D100056469D427FF6DFAE05EB0A00A0EB030A94
:103D200032464346394620200136D8475645F7D11A
:103D3000D1E6099A954202F1010340F2C88105EBF0
:103D40000A09A9EB020952464346394620200AF1E6
:103D5000010AD847CA45F6D130786B1C0993002870
:103D60007FF4A1AEB7E64FF008090B91642818BFA5
:103D70000B997FF460AF0B9B5A053FF561AFF2E5FD
:103D8000099B073323F007031A4610465B6850F877
:103D9000082B002B19461646099060DB0846D90F00
:103DA00013430D913BD00B9B002113F0200F14BF48
:103DB0004123612312AA0A3BCDE90EA51094CDF848
:103DC00044B00D46144682469B460C9203E0202DDB
:103DD00017D006468A4630464A465146002303F02D
:103DE000D3F9D2B2092A02F1300388BF02EB0B03E8
:103DF000DBB24E4504F8013B7AF1000305F1010501
:103E0000E5D22A46DDF838A0109C0F9DDDF844B0BD
:103E10000FE052F8043BDBB209921A46BDE50B9A5B
:103E200022F0100352050B93BDD500231A4612ABA6
:103E30000C930B9B0192CDE905530A9B5246CDE9A9
:103E400003930D9B02930C9B0093C0E513F0800F2E
:103E5000099B53F8042B099318BF92B20BE7564203
:103E600063EB43019AE7B246CDF8249035E60B9B0D
:103E700013F0200F14BF4FF0410E4FF0610E12AB44
:103E80009C460C93AEF10A0E03E020293FF493AD5B
:103E90003246B2FBF9F609FB1620C3B2092803F13A
:103EA00030008ABF7344C3B2DBB24A450CF8013B11
:103EB00001F10101E9D27EE50B9B13F0200F14BF45
:103EC0004FF0410E4FF0610E12AB9C460C93AEF1D9
:103ED0000A0E03E020293FF4DBAE3246B2FBF9F6CE
:103EE00009FB1620C3B2092803F130008ABF7344CE
:103EF000C3B2DBB24A450CF8013B01F10101E9D242
:103F0000C6E6099B073323F007035A6853F8086B8A
:103F10001046099356EA020335D10B9A22F010039A
:103F200052050B932FD500231A4612AB0C930B9B13
:103F30000192CDE905530A9BCDE90393AFE6099BB6
:103F40001A4652F8043B0D92D90F83EAE372A2EBB2
:103F5000E3720991002B68D10B9921F010030B93A8
:103F60004B0562D512AB0C930B9B5246CDE9055322
:103F70000A9BCDE90393099BCDE901030C9B0093B8
:103F80000D9B099323E50B9B002113F0200F14BF19
:103F90004123612312AA0A3BCDE90DA50F94CDF868
:103FA00040B00D46144682469B460C9203E0202DFD
:103FB00017D006468A4630464A465146002303F04B
:103FC000E3F8D2B2092A02F1300388BF02EB0B03F7
:103FD000DBB24E4504F8013B7AF1000305F101051F
:103FE000E5D22A46DDF834A00F9C0E9DDDF840B0E6
:103FF0009DE7099B53F8042B0993002A39D10B99AB
:1040000021F010030B934B0533D512AB0C930B9B94
:104010005246CDE905530A9B0190CDE903930C9BD1
:1040200000933FE64FF002099FE60B9B13F0200F31
:1040300014BF4FF0410E4FF0610E12AB9C460C9333
:10404000AEF10A0E02E020288ED03246B2FBF9F61D
:1040500009FB1621CBB2092903F130018ABF734451
:10406000CBB2DBB24A450CF8013B00F10100EAD2C9
:104070007AE70B9B13F0200F14BF4FF0410E4FF067
:10408000610E12AB9C460C93AEF10A0E02E02028A2
:10409000BDD03246B2FBF9F609FB1621CBB2092995
:1040A00003F130018ABF7344CBB2DBB24A450CF84E
:1040B000013B00F10100EAD2A9E7099283EAE37229
:1040C000A2EBE37269E4554615E60990D9E4099339
:1040D00000287FF4E8ACFEE470B594461E46054621
:1040E0000C4684B04FF0FF32634602A900960348A5
:1040F000CDE90254FFF70CFB04B070BDCD2E0010CB
:1041000010B5094B84B01C684CB1034600914FF0C8
:10411000FF3203A90548A047012004B010BD00F0FC
:1041200071F9204604B010BD74CB0020C52E0010DC
:1041300000BEFDE708B5FFF7FBFF00BF38B5064D31
:10414000064CFEF7DFFAAC4204D254F8043B984721
:10415000AC42FAD338BD00BF0872001000720010E4
:104160000368084611461847437D2DE9F04782460B
:104170000F469146002B44D0002A2ADD0024012559
:104180002046DFF88C804E1E2CB3337816F8012FB2
:10419000A3F10D03B3FA83F30A2A4FEA531320D095
:1041A0002B46994504F1010405F10105ECDC81453C
:1041B00005DDA9EB0001DAF80030384498474F4498
:1041C00017F8013CA3F10D03B3FA83F35B098AF8F6
:1041D0001430BDE8F08716F8012F9AF814300A2A37
:1041E000DED1002BDCD1A04204DA211ADAF800304B
:1041F0003844984740460221DAF80030984728466C
:10420000CEE73846DAF800301146BDE8F0471847E7
:10421000207500100B682DE9F041802B0D460646F5
:1042200005D05A1C2B442A601E71BDE8F0810F4B4B
:104230001C68A4B10E4F01F1040801E0246974B1B7
:104240002368002BFAD03B680BB1A342F6D120467D
:1042500041462A68FFF788FF2469002CF0D100232B
:1042600001222B442A601E71BDE8F08168C700203E
:1042700070C700202DE9F04782B00D46924699465E
:104280000746FDF79BFF2F4A821841F10003002BE0
:10429000BCBF4FF0FF326FF000432B4802F084FFA9
:1042A0006B1C804603D1384602F02CFF0546274B95
:1042B000274E1C68274BB9F1000F08BF1E46B4B14A
:1042C000BAF1000F1AD1DFF8909001E0246974B1BF
:1042D0002368002BFAD0D9F800300BB1A342F5D1F6
:1042E00020462A463946B0472469002CF0D1B8F15F
:1042F000000F1FD1284602B0BDE8F0874FF00A0A30
:10430000DFF8549002E02469002CF0D02368002BE1
:10431000F9D0D9F800300BB1A342F4D120462A4697
:104320003946B047204601220DF107018DF807A05C
:10433000B047E8E7044802F02BFF284602B0BDE88A
:10434000F08700BF40420F00C815002068C700205A
:10435000694100106141001070C70020084A1368CD
:1043600023B90AE003F110021B6933B19842F9D175
:1043700029B9036913600161704701B1106070478A
:1043800068C7002000F0CABAF0B583B006468DF8C1
:104390000700FDF713FF174A821841F10003002BB5
:1043A000BCBF6FF000434FF0FF32134802F0FCFE39
:1043B000124B07461C689CB1114D01E024697CB189
:1043C0002368002BFAD02B680BB1A342F6D120460C
:1043D00001220DF10701FFF7C7FE2469002CEFD180
:1043E00017B9304603B0F0BD034802F0D1FE3046A5
:1043F00003B0F0BD40420F00C815002068C7002080
:1044000070C7002038B5044602F07CFE0123054643
:104410001A4620462946FFF72DFF084B1C682CB191
:1044200063682BB198472469002CF9D1284638BD20
:104430002469002CF4D1284638BD00BF68C700208D
:104440002DE9F041A2B004460D46FDF7B7FE274A1C
:104450000026821841F10003002BBCBF4FF0FF3251
:104460006FF00043224802F09FFE2B46074622468B
:10447000204801A90196FFF72FFE019B06467BB954
:104480001D4B1C682CB1636843B198472469002C0C
:10449000F9D10FBB304622B0BDE8F0812469F1E7C5
:1044A000DFF85480D8F80050EDB1144C01E02D69CC
:1044B00075B12B68002BFAD023680BB19D42F6D161
:1044C0002846019A02A9FFF74FFE2D69002DF0D171
:1044D000D8F800400195D5E7054802F059FE30466E
:1044E00022B0BDE8F0810195D3E700BF40420F0044
:1044F000C81500201542001068C7002070C70020B2
:104500000FB400B583B004A951F8040B0191FFF773
:1045100097FF03B05DF804EB04B07047704700BF2D
:104520000022014B1A707047DDCB00204B79FF2B26
:104530000BD1887948B9CB79012B07D1082A05D945
:10454000034B8A7809201A7070470020704700BF1B
:10455000DDCB002001207047012908D110B5124B96
:104560000C461B789188994203D0002010BD012091
:1045700070475378012B08D0022BF6D1002164221A
:104580000846FDF7F7FF204610BD5188CB054BBF0D
:104590004A0A4A0A10464FF0FF3002F0010201F0C9
:1045A0007F01FEF769F800BFDDCB002000487047AF
:1045B00044750010012907D15378012B02D193884B
:1045C000072B03D000207047012070471146A62317
:1045D000014A01F057BA00BF687500100346012276
:1045E00001481A70704700BF2475001008B50B68A9
:1045F000B3F5966F00D008BD00224FF0FF30114692
:10460000FEF73AF8024A034B10601960704700BF8A
:1046100008C700200CC70020184B70B51A68002A84
:1046200028D0EFF3108172B6D2E8CF4F0120002CD2
:10463000FAD1C2E8440F002CF6D1BFF35F8F0022FD
:104640000F4C186859602270C0E88F2F81F31088D2
:10465000002400250B4E3078FCF76CFF20B90024B5
:1046600000252046294670BD3078FCF773FF2046B0
:10467000294670BD4FF47A740025EBE780CB00200B
:10468000DFCB0020DECB0020014B1878FCF762BFA7
:10469000DECB002038B5044600200D4601F03AFB81
:1046A00090B3002001F04CFB70B3FDF787FD184A72
:1046B000821841F10003002BBCBF4FF0FF326FF0B6
:1046C0000043144802F070FDF0B1002001F022FB1D
:1046D00058B900214FF0FF3000F01CFD6FF00204CC
:1046E0000C4802F055FD204638BD002001F028FBA3
:1046F0000028EED021462A46002001F02DFB041EA2
:1047000008BF6FF00204EBE76FF00204EBE700BFB5
:1047100040420F00B4CB002008B5FDF74FFD0F4A13
:10472000821841F10003002BBCBF4FF0FF326FF045
:1047300000430B4802F038FD70B14FF0FF3000210C
:1047400000F0E8FC002001F04FFB0028F5D1BDE8A7
:104750000840034802F01CBD08BD00BF40420F00E6
:10476000B4CB00202DE9F84307460E46FDF726FDA1
:10477000344A821841F10003002BBCBF4FF0FF32D6
:104780006FF00043304802F00FFD08B9BDE8F88330
:10479000002001F0BFFA002849D0002E42DD00259C
:1047A000DFF8A880DFF8A89013E02246002001F08F
:1047B0005FFB002104464FF0FF3000F0ABFC00200F
:1047C00001F012FBFDF7FAFCC8E900012544AE42F6
:1047D00028DD002001F070FB741B8442A8BF044652
:1047E0007919002CE1D121464FF0FF3000F092FC06
:1047F000204601F0F9FA204601F08CFA90B12046EB
:1048000001F05AFB0028E2D1FDF7D8FCD8F80030BF
:10481000D8F8042013EB090342F10002834272EB43
:104820000103D4D20848BDE8F84302F0B1BC00202F
:104830000021064BC3E90001BDE8F843024802F03D
:10484000A7BC00BF40420F00B4CB0020501700208F
:1048500020A1070030B5002185B02A4802F0A8FC4D
:10486000F0B9294B1A68CAB1EFF3108172B6D2E8D9
:10487000CF5F0124002DFAD1C2E8454F002DF6D1BB
:10488000BFF35F8F214C1D6822785960D3B201229B
:104890002270C5E88F0F81F31088CBB105B030BD11
:1048A00000214FF0FF3000F035FC002001F048FA05
:1048B0000446144802F06CFC002CEFD0144B1B682B
:1048C000002BEBD0134A106805B0BDE83040184704
:1048D000FDF766FA0446FDF771FC10F57A7241F1B6
:1048E00000030125002120460B4C002BBCBF4FF0DC
:1048F000FF326FF00043CDE901150094FDF754FA43
:1049000005B030BDB4CB002080CB0020DFCB002031
:1049100008C700200CC70020194600104FF0504374
:1049200030B585B01C68FDF73BFAFDF74DFBA042A2
:1049300002D0002005B030BD0021274B08461B786F
:1049400001F088FD25480368002B42D00120FCF7C8
:10495000A1FF0346224C2349C0B22370FCF718FE86
:1049600020780121FCF7D0FD0E20FCF701FE18BBDA
:104970001D4B0125C3E90000FDF712FA0446FDF7BF
:104980001DFC10F57A7241F1000300212046174CFE
:10499000002BBCBF4FF0FF326FF00043CDE9011593
:1049A0000094FDF701FA0028C3DB01211048FFF74E
:1049B000D5FC012005B030BD0120FCF761FD0146AA
:1049C0000948FCF7C7FF00220E200A49FCF710FE39
:1049D000EBE7FCF7A3FFB9E7BC770010B4CB0020EE
:1049E000DECB00205548001080CB00201946001077
:1049F0005C1100208946001000487047B076001016
:104A0000004870475C76001038B51A4B04461A7897
:104A10002AB344B940F209424FF44173164D6A80FB
:104A200015482B8038BD052C21D8144B124D53F856
:104A3000241028460023013903E0132B20F8022F0D
:104A400012D011F8012F5FFA83FC0133002AF4D150
:104A50000CF10103DBB25B0043F44073E0E711218A
:104A6000184600F025F8D4E74FF44A73D8E7002041
:104A700038BD00BFC0CB002040C70020C476001066
:104A800000B545F247308BB0FDF7EAFD0122034641
:104A9000092101A89847DDE90332044912BA1BBA7B
:104AA000C1E900230BB05DF804FB00BFA8CB0020D8
:104AB000013900F0B3805D4A13784FEA231C9F2B25
:104AC0008CBF0CF1370C0CF1300C012980F800C0C0
:104AD00000F0A78003F00F03092BCCBF373330332E
:104AE0000229437000F09D8053784FEA231C9F2BCE
:104AF0008CBF0CF1370C0CF1300C032980F802C08C
:104B000000F08F8003F00F03092BCCBF3733303315
:104B10000429C37000F0858093784FEA231C9F2BF3
:104B20008CBF0CF1370C0CF1300C052980F804C057
:104B300077D003F00F03092BCCBF3733303306296E
:104B400043716ED0D3784FEA231C9F2B8CBF0CF19E
:104B5000370C0CF1300C072980F806C061D003F047
:104B60000F03092BCCBF373330330829C37158D01A
:104B700013794FEA231C9F2B8CBF0CF1370C0CF1DF
:104B8000300C092980F808C04BD003F00F03092B23
:104B9000CCBF373330330A29437242D053794FEABE
:104BA000231C9F2B8CBF0CF1370C0CF1300C0B2904
:104BB00080F80AC035D003F00F03092BCCBF373380
:104BC00030330C29C3722CD093794FEA231C9F2BCE
:104BD0008CBF0CF1370C0CF1300C0D2980F80CC097
:104BE0001FD003F00F03092BCCBF373330330E290E
:104BF000437316D0D3791A119F2B8CBF37323032C2
:104C00000F2982730DD003F00F03092BD4BF30336B
:104C100037331029C37318BF103002D0002303703C
:104C20007047002308440370704700BFA8CB0020E2
:104C3000F8B500F03BF90C2340271A4D1A4CAB672E
:104C4000FF220E201949FCF7D3FC3A4600212046EA
:104C500002F0E0F9164B0126A36280210023154AD9
:104C60006670A260843A278327876184C2F8843003
:104C7000C2F88030636084F8213084F83B3063628E
:104C80000D4BE360E36202F07BFA4FF000544FF407
:104C900080320A490A4B2E643046EC64C5F8901005
:104CA000DA64F8BD0000115074C70020A903002089
:104CB00080001050840010500001105010D00100EE
:104CC0000020115001210E20FCF71EBC00220248DA
:104CD000114600F00BB900BF94C70020044B1970B7
:104CE00021B14FF40032034BC3F89020704700BF4E
:104CF000DACB0020002011500B785B0602D14B78F4
:104D0000052B00D070474B88014ADBB21360704717
:104D100000001150CB782DE9F04103F0030EBEF1F5
:104D2000010FC3F301005FD0002791F802C0374D97
:104D30000CF07F025600898806EBDC1305EB431369
:104D40004FEADC14C1F30A01D87684F0010083F83D
:104D500002C019835870DF7094BB04232C4803EB06
:104D6000C20305EB821C03EB0008CCF808801F503F
:104D70008AB3284BD2001344CCF804303F31BEF143
:104D8000020F21F03F013AD0234A3719136805EB8F
:104D9000471719441160214AFB60914231D83444CD
:104DA00005EB4415E97E83F0A04383F480136A6821
:104DB00043EA816343F0004301201360BDE8F081C2
:104DC000134813B200EBC20805EB821CCCF8288014
:104DD00040F833705AB90023114A05EB44140120FE
:104DE000E2606360BDE8F0810020BDE8F081D200A0
:104DF00002F1A04202F58012CCF82420BEE749005F
:104E0000C2E7FDF779FCFB68C9E700BF74C7002063
:104E100080001050040010507CCB0020FF0F105079
:104E20000001105002F0ACB98C4608B51146074895
:104E30001A460CF07F034FEADC1C0CEB430C00EB32
:104E40004C1000F053F8012008BD00BF74C70020CB
:104E500011F07F000AD0C909074B01EB40004FF465
:104E60000062002103EB401002F09AB9034BC9091C
:104E7000C1F102029A66EFE774C7002000201150CA
:104E800011F07F0300D17047002210B4C809064C0E
:104E900000EB430004EB40136FF4006118465DF82B
:104EA000044BDA7002F07CB974C700204FF08052D6
:104EB00009480A4908B50A4B02600A609968C94363
:104EC00011F08051FAD14FF48052064802F0A2F856
:104ED0000922054B5A6708BD0020024000300240FD
:104EE000000002400000105000001150837E10B5F9
:104EF0000446BBB94FF0000C01232046A282216179
:104F0000A4F816C0A37602F047F920B14FF400329E
:104F1000084BC3F89020204602F04EF928B1012337
:104F2000237710BD02F020F9E4E72046BDE81040E9
:104F300002F022B9002011502DE9F04100241D4D4E
:104F4000804623462A781C4F1C4E0DE0336813EB35
:104F5000441325D0DB68404698472A780134E4B2F0
:104F6000511CA142234606DBA242A3EB0203EDD86B
:104F700007EB4313EEE7124C54220021204602F0C7
:104F800049F84FF0FF33251D6360C5E90133EB603D
:104F900004F114002022BDE8F041FF2102F03AB8EC
:104FA0004FF0E023D3F8F03DDB0700D500BEBDE8AD
:104FB000F08100BFD9CB002038770010801F00207F
:104FC00050210020704700BF704700BF002070478D
:104FD00000207047704700BF704700BF704700BF98
:104FE000704700BF024B5878003818BF0120704747
:104FF00050210020024B1878C0F38000704700BF9A
:10500000502100202DE9F047DFF8008198F80030AA
:10501000FF2B4DD10D4600294ED0002154220746CA
:10502000314801F0F7FF0022304C314B20461A7016
:10503000FCF774FC2F4B1C602F4C04F11400FCF7A0
:105040007BFC204601F0EEFD2C4B1C602C4B23B169
:105050002C48FFF7C3FA2C4B18600024294E234636
:105060003278DFF8ACA0DFF8A0900EE0D9F800307D
:1050700013EB441311D05B687BB19847327801344D
:10508000E4B2511CA142234620DBA242EED89B1A77
:105090000AEB43135B68002BEFD14FF0E023D3F80A
:1050A000F03DDA0700D500BE00252846BDE8F087B0
:1050B00001252846BDE8F0874FF0E023D3F8F03D06
:1050C000DB07F1D500BE2846BDE8F0872946384603
:1050D00088F80070FFF7ACFD05460028ECD0384694
:1050E000FFF7F0FDE5E700BF502100204821002038
:1050F000DBCB0020A421002074110020A821002077
:10510000DD450010D9CB0020801F00209011002029
:10511000387700102DE9F04FDFF8CC928BB099F87A
:105120000030FF2B00F0EF80AA4CDFF8C0A2DFF8C0
:10513000C0B225686B69EFF3108272B6D3E8CF0F67
:1051400001210028FAD1C3E8401F0028F6D1BFF39F
:105150005F8FAA61284607A901F0C0FB00236A6996
:10516000C2E88F3FAB6983F31088002800F0CB8042
:105170009DF81D30013B072B00F28E83DFE803F022
:10518000A5B0919A89360A04089B002BD1D00998C2
:105190009847CEE79DF820108F4B01F07F0503EB79
:1051A000450303EBD11393F834206FF3000283F827
:1051B000342093F834206FF3820283F83420002DDA
:1051C00000F0A480854A1B7D1278934280F0918084
:1051D000DBF8002012EB431300F08E809D699DF8F0
:1051E0002120099B9DF81C00A847A2E77C4A137860
:1051F000002B00F081801378013BDBB21370137831
:1052000003F0FF00002B94D1734D9DF81C802B7888
:1052100043F001032B7095F8343060F3000385F8F8
:10522000343095F8343060F3820385F8343095F8E3
:10523000353060F3000385F8353095F8353060F38C
:10524000820385F8353000F08DFC9DF8203003F0A6
:105250006002602A0BD0402A64D003F01F03012BA8
:1052600000F0C880022B00F08980002B66D04FF040
:10527000E023D3F8F03DDD0700D500BE9DF81C000B
:105280000021FFF7E5FD80219DF81C00FFF7E0FD00
:105290004FE7514B1B78D9077FF54BAFFFF7A0FEC7
:1052A00047E74D4BDB78DA077FF543AF0898FFF708
:1052B0008BFE3EE7484B1A78D0077FF53AAF187857
:1052C000C0F3C000FFF78AFE33E79DF81C00FFF72C
:1052D00033FE00F03DFC404B9DF820209A7028E7FB
:1052E0009DF81C00FFF728FE00F032FCFFF774FE6B
:1052F0001FE7501C984211DA4FF0E023D3F8F03D3D
:10530000DC0700D500BE0BB0BDE8F08F099B9DF80F
:1053100021209DF81C0000F039FC0AE79B1A0AEBDB
:1053200043135BE72F4800F01DFC4046012108AA0B
:10533000FFF740F900287FF4FCAE9FE7202A00F039
:105340008D81002A93D19DF82130092B8FD801A29D
:1053500052F823F0FB550010DF5500106F5200107B
:105360001D5600106F520010C555001073550010E7
:105370006F5200105D550010835400109DF82410EA
:1053800011F0700F7FF473AF144B01F07F061878A3
:1053900005EB460303EBD1131F7DCB0987424FEA90
:1053A000460601935BD3431CBB42C0F274813F1A93
:1053B0000AEB4717002A00F07281786900F0D2FBEF
:1053C000404601217B6908AA984700287FF4B1AEC6
:1053D00054E700BFA821002050210020D9CB002095
:1053E000DBCB0020B545001090110020387700106D
:1053F000801F00209DF824300F2B3FF63FAFB54AA9
:105400002B441B791578AB4234D36A1C9A42FFF6C1
:1054100035AF5B1B0AEB4315686900F0A3FB012164
:1054200040466B6908AA984700287FF482AE9DF831
:10543000203013F060057FF421AF9DF821300A3B46
:10544000012B3FF61BAF00F08DFB9DF821300A2B9E
:1054500000F0F781404608A900F0FAFA69E6DBF8A7
:10546000003003EB4717002A00F01981002F3FF4AA
:1054700005AFA2E7DBF8005015EB43153FF4FEAE95
:10548000CAE76B789DF822609E4200F054816B78E9
:10549000002B40F0C4816E70002E00F04A81701E17
:1054A000C0B2FFF7ADFA002800F065814378022B07
:1054B00040F061812B78C27923F03001C2F34013B0
:1054C0001B01C2F3801243EA42130B432B70438843
:1054D00000F10906C3180293CDF80C80029BB34279
:1054E00040F2AA8172780B2A00F0B5810123042AC8
:1054F00040F0418118464FF00008029A7549921B0E
:1055000033460978064692B2CDF804801EE0DBF8F7
:10551000007017EB481700F02E811946049303988A
:105520003B6905929847DDE90432082808F101013A
:1055300002D9824280F004815FFA81F86549CDF892
:1055400004800978481C804500F31581019888453E
:10555000A0EB0101DBD30AEB4117DEE76B78404695
:105560008DF81A300DF11A02012308A900F08AFA09
:10557000DFE5BDF82200030A5A1EC0B20E2A3FF62C
:105580007DAE01A151F822F0A75700103956001046
:10559000E35700107D5200107D520010C5570010D7
:1055A000395600107D5200107D5200107D520010BF
:1055B0007D5200107D5200107D5200107D5200106F
:1055C0009957001008A800F0D3FA40469DF8221021
:1055D000FFF77CFB2B7843F002032B70A9E5BDF8A5
:1055E0002230012B7FF44AAE2B7840466FF3C30381
:1055F00008A92B7000F02CFA9BE540462B789A08FE
:1056000002F00202C3F340131343ADF81A300DF158
:105610001A02022308A900F035FA8AE5BDF8223003
:10562000012B7FF42BAE2B78404643F0080308A9EA
:105630002B7000F00DFA7CE5022B00F01181FFF7D2
:10564000C7FC024600283FF419AE4046538808A91B
:1056500000F018FA00287FF46CAD0FE69DF82430B6
:105660000F2B3FF60BAE1B4A2B441B791578AB4230
:1056700027D2DBF8005015EB43153FF4FFAD686906
:1056800000F070FA404601216B6908AA984700288B
:105690007FF44FADF2E5002A7FF4F0AD00279DF8CE
:1056A000212002F0FD03012B16D0002A7FF4DFAD8C
:1056B000019B35442B4493F834304046C3F34003F8
:1056C000A3E76A1C9A42FFF6D9AD5B1B0AEB4315B0
:1056D000D5E700BFD9CB0020BDF82230ABB9012AF5
:1056E00000F0878099F80000FFF7B2FB019AAB1930
:1056F000134493F8342042F0020283F8342093F8E4
:10570000342042F0010283F83420002F3FF411AD21
:10571000786900F027FA7B69012108AA404698477A
:10572000002000F01FFA95F83530DE073FF501AD97
:1057300090E6FFF751FC404608A900F089F9F8E42B
:105740003246012A1E46134600F0A080002A00F0CF
:105750008E800022B77805E081F80480D1B28B42B8
:1057600040F28580B91855FA81F191F804C00132F0
:10577000BCF1FF0FF0D04FF0E023D3F8F03DDB0792
:1057800000D500BE4FF0E023D3F8F03DDF0700D591
:1057900000BE00236B7071E5FEF708FF024600288B
:1057A0007FF453AF6AE5FFF727F9024600283FF47C
:1057B0005EAD4046122308A900F064F900287FF48A
:1057C000B8AC5BE5FFF702FC024600283FF456AD9B
:1057D0004046137808A900F055F900287FF4A9ACD9
:1057E0004CE5BDF82410FFF70FF902460028EFD171
:1057F00044E599F800000293FFF742FB019BAA19C8
:105800001A4492F83410029B63F3410182F8341079
:1058100092F8341063F3000182F8341075E7002128
:105820004046FFF75BFA4046FFF7FCFAAF78404688
:10583000FFF782FBAF702EE6DDF80C80FFF7CAFBA6
:1058400079E74046012308A90DF11A028DF81A5094
:1058500000F018F96DE43278F3781644727846E671
:10586000FFF7CEF8024600287FF4EFAEFFE40246D1
:105870004346314606440D4800F0A0FE0C4B019A09
:105880001B7801339342BFF629AE74E73A690949A0
:105890008A4208BF02235CE74FF0E023D3F8F03DD3
:1058A000DB077FF546AC00BE43E400BF6421002067
:1058B000D9CB0020AD5F00102DE9F84F0A9F002AD8
:1058C00040D00C461E4615464FF0000ADFF87C908B
:1058D000DFF87C8018E0204698F8021099F800B0B4
:1058E00000F038FEE0B121465846FFF713FAF0B158
:1058F000A2780AF1010AD30916BF0B9B3A701A70FD
:105900002278AA4514441DD06278052A0FD1E17887
:1059100001F00301B1420AD1A27812F0700FDAD07F
:105920004FF0E023D3F8F03DDA0700D500BE4FF08A
:10593000E023D3F8F03DDB0702D40020BDE8F88F68
:1059400000BEFAE70120BDE8F88F00BF90110020EB
:105950005021002038B58B7813F0700F08D04FF02D
:10596000E023D3F8F03DDB0700D500BE002038BDB2
:10597000074A084B0C46084691781D7800F0EAFD6E
:105980000028ECD021462846BDE83840FFF7C2B9D0
:1059900050210020901100200B46064A064811684D
:1059A000DA09343203F07F0302EB4303184400F0BA
:1059B0008BBD00BFA4210020502100200B46064AC9
:1059C00006481168DA09343203F07F0302EB43031F
:1059D000184400F0A3BD00BFA421002050210020E6
:1059E00010B5194C01F07F0C04EB4C0404EBD11002
:1059F00090F834C01CF0010F08D04FF0E023D3F82A
:105A0000F03DDA0700D500BE002010BD90F834C08C
:105A100000F130040D484CF0010C007884F804C00B
:105A2000FFF702FA0028F0D14FF0E022237960F36B
:105A300000032371237960F382032371D2F8F03DD0
:105A4000DB07E1D500BE10BD5021002090110020E1
:105A500030B50B4C8C46A6460023054608684968BD
:105A60001A46AEE803009CF9001028469942C4E9A2
:105A70000233BDE83040ACBF80211946FFF7B0BF0C
:105A8000102100202DE9F0412F4F4FF00008BE46B5
:105A90008C46064608684968BA60AEE80300A7F875
:105AA0000E80BCF8065082B0AB4228BF2B46BB81AB
:105AB0009DB14BB314467AB397F90020402B28BF11
:105AC0004023002A32DB4146204A3046FFF788FF58
:105AD00080B1012002B0BDE8F0819CF900202B4686
