:020000041000EA
:1000000000B5324B212058609868022188439860DF
:10001000D860186158612E4B002199600221596106
:100020000121F02299502B49196001219960352056
:1000300000F044F80222904214D00621196600F024
:1000400034F8196E01211966002018661A6600F04E
:100050002CF8196E196E196E052000F02FF8012189
:100060000842F9D1002199601B49196000215960AB
:100070001A491B48016001219960EB211966A021F2
:10008000196600F012F800219960164914480160C1
:100090000121996001BC002800D000471248134993
:1000A000086003C880F30888084703B5996A0420EC
:1000B0000142FBD001200142F8D103BD02B5186610
:1000C0001866FFF7F2FF186E186E02BD00000240BE
:1000D000000000180000070000035F00212200005C
:1000E000F4000018222000A00001001008ED00E03C
:1000F00000000000000000000000000074B24E7A12
:1001000000200420F7010010CB010010CD010010E9
:10011000C9010010C9010010C9010010C901001077
:10012000C9010010C9010010C9010010CF01001061
:10013000C9010010C9010010D1010010D301001045
:10014000C1010010C1010010C1010010C101001067
:10015000C1010010C1010010C1010010C101001057
:10016000C1010010C1010010C1010010C101001047
:10017000C1010010C1010010C1010010C101001037
:10018000C1010010C1010010C1010010C101001027
:10019000C1010010C1010010C1010010C101001017
:1001A000C1010010C1010010C1010010C101001007
:1001B000C1010010C1010010C1010010C1010010F7
:1001C000EFF30580103800BE00BE00BE00BE00BECA
:1001D00000BE00BEF2EB8871DC2B0010F82B001083
:1001E0003802001090A31AE71E481F49086006C88D
:1001F00081F3088810471D480068002801D019487D
:10020000F3E70DA40ECC002902D000F012F8F9E7B4
:100210001749184A002000E001C19142FCD116495B
:100220008847164988471649884700BEFDE701C937
:1002300001C29A42FBD37047F82B0010C000002087
:10024000E8010020202D0010000004200000042000
:10025000202D0010001004200010042000000000D9
:10026000704700000000000008ED00E0000000D032
:10027000E8010020346F002089240010F5030010ED
:1002800081240010F8B5C0460448054B10B58342E0
:1002900003D0044B002B00D0984710BDE80100208C
:1002A000E80100200000000006480749091A8B10E9
:1002B000C90FC91810B5491003D0044B002B00D04A
:1002C000984710BDE8010020E80100200000000070
:1002D00010B5074C2378002B09D1FFF7D5FF054B4C
:1002E000002B02D0044800E000BF0123237010BDA2
:1002F0006805002000000000902A0010054B10B592
:10030000002B03D00449054800E000BFFFF7CCFFF5
:1003100010BDC046000000006C050020902A0010AF
:1003200070B50D00040000F08BFB2900200000F0E8
:10033000A9FB29000122200000F010FB70BDC0467F
:1003400010B50F2802D84BB2002B00DA10BD0022E6
:1003500000F004FBFAE7C046F0B5D64646464F46E5
:10036000C0B500F049F9204B204D9946204BA944D7
:100370009A46C8463F26AA4406E01B4B4D469C467B
:10038000E044D14528D0E1442B78002BF5D06F68AC
:10039000143502E00C354545EFD02B78002BF9D011
:1003A0006B78002BF6D0AB68002BF3D06C68F1DDD6
:1003B0003100E31719409B0EE018091930403A004C
:1003C000C01A891100F0E8F8AA686B6894460134F5
:1003D0006344A342ECDCDDE700F0F6F8E0BCBA468B
:1003E000B146A846F0BDC04614060000980D002096
:1003F0004061000070B500F04BF800F007F900F024
:10040000EBF900F09BFA192000F076FBD023802254
:10041000FA251B0692041D4C5A626D0000F0FAF991
:10042000FFF79AFF01F074F800291FD0FA22002389
:10043000920001F0DBFC2368C01AA842EED9D02359
:1004400080221B069204DA6101F062F8002916D0BE
:10045000FA220023920001F0C9FC206000F0DAF9D2
:10046000FFF77AFF01F054F80029DFD1FA21890063
:1004700001F07EFC2368C01AA842CFD9DFE7FA2139
:10048000890001F075FC2060E8E7C046880D002077
:100490008022F0B5364D87B012010021280001F00E
:1004A000C1FF3449344802F051F906210600022008
:1004B00000F008FB01230021022200932E4802F0E5
:1004C000BFF980235B020293F31CF2011B03134369
:1004D0002A4A052013400393294B0593294B049383
:1004E00001F042FA01F020FF274901F002FFEC2160
:1004F000890501F0FBFE071C01F03EFF84B20023DA
:10050000002C0ED0200001F00FFF011C381C01F060
:10051000EAFE8721C90501F000FF01F02DFFC3B2FB
:100520001B0224041C430294134C3200002102AB32
:10053000200002F0E3F90122236801201343236025
:1005400002F026FAA021114BC2021860104BC90517
:100550001A4019238C461A430E49830163441D60D7
:1005600059608021890099601A6107B0F0BDC046CA
:1005700084050020902A001000002050FFFFFF9FFC
:1005800000080020000006700024F44A840D0020BA
:10059000FD7F00FF100020503F280DD807290BD801
:1005A0001F280ADC1F23181AC300C00708D5591AD0
:1005B0000731044B8900CA507047C300C007F6D406
:1005C000C918F6E784050020084B09491A68A023DA
:1005D0009201DB05D318D963064B80219C46490460
:1005E000624413680B42FCD17047C046840D002062
:1005F0008405002010000050802210B50021024820
:10060000120101F00FFF10BD840500200823F0B592
:100610004546984657464E46DE4600234446E0B5DA
:10062000694F83B0694E0193802200211201380086
:1006300001F0F8FE1F21019AD3001500891A203A13
:100640009C461000FA23F8229B4692466346F73AEE
:10065000A44600953AE01C00024200D0DC1DA40034
:100660003E515C1C024200D09C1DA4003E519C1CCB
:10067000024200D05C1DA4003E5114000440E41866
:100680000334A4003E511400044025006C426C4128
:10069000E4180334A4003E515C1D002D00D09C1CC6
:1006A000A4003E519C1D024200D05C1CA4003E519F
:1006B000DC1D024200D01C00A4003E51009C083307
:1006C0000134009401390130A44545D0009C3F2CF1
:1006D000F4DC1F2CBFDC5446E41A0A4201D0FF248C
:1006E000E41AA4003E51F924E41A0A4201D0FE247F
:1006F000E41AA4003E515C46E41A0A4201D0FD24EB
:10070000E41AA4003E510A4223D1FB24E41AA400B7
:100710003E510A421AD1FC24E41AA4003E51FD24A1
:10072000E41A0A4201D05C46E41AA4003E51FE24B9
:10073000E41A0A4201D0F924E41AA4003E515446B6
:10074000E41A0A42B8D1FF24E41AB5E7FB24E41AFC
:10075000E3E7FC24E41ADAE71D4B64461B688021BA
:100760009A010093A023DB05D318DF63194B4904DA
:100770009C46624413680B42FCD1C82000F01EFE68
:10078000019B083408330193402B00D04CE78022B2
:1007900000211201380001F045FE0D4B80211A683E
:1007A000A0239201DB05D318DF630A4B49049C4662
:1007B000624413680B42FCD103B0F0BCBB46B246A6
:1007C000A946A046F0BDC04684050020CC00CC0060
:1007D000840D00201000005010B50C4C0C49200076
:1007E00000F0DAFE0221002000F06CF90221012065
:1007F00000F068F9002301222000082100F05AFFD0
:100800000021200000F092FF10BDC04600400340D0
:10081000127A0000F8B5CE464746424D80B5AB6926
:10082000DB061AD4404B10249846404F2100AB6998
:1008300019401C42FAD12B683878DAB2002810D15E
:100840001B0612D443461B78012B35D0022B22D035
:10085000002B13D0AB691C42E8D0C0BCB946B046EF
:10086000F8BDF72AF6D13970F4E7F02A38D0F72A24
:10087000F0D8EF2A2CD92E4B1870EBE72C4B1B78B5
:10088000002BE7D02B490B702B490A701F22934392
:10089000C02B19D10CE00F210800264B1B78184003
:1008A00081468B43902B25D0B02B2AD0802B1CD097
:1008B000002342461370CDE71F4B1A701F221D4BB9
:1008C0001B789343C02BF3D0022342461370C1E739
:1008D000184B1A70164B1A700122134B1A70B9E795
:1008E00001233B70124B1870B4E7134B1978FFF7D4
:1008F00027FDDDE7104B1978002A0FD1FFF720FD07
:10090000D6E70D4B1B787B2BD2D10026F1B248469F
:100910000136FFF715FD802EF8D1C9E7FFF700FD7E
:10092000C6E7C04600400340316F0020326F002010
:100930002F6F00202E6F0020306F002010B5044A6A
:100940000021044801F06EFD0022034B1A6010BD27
:1009500040610000980D0020940D00200F280AD857
:100960007F2908D84B005918034B890058430818B1
:10097000024908184275704714060000980D0020BF
:10098000F0B5DE4657464E464546E0B5284B83B0A7
:100990001C68002C44D080202100800001F0C0F9A8
:1009A000834680202100800001F0BAF9214C224BBF
:1009B0000025E718214B3E009A46002398460191F6
:1009C000A2442378002B23D0019B0120434500DC67
:1009D00000205844216943199946A560E060002928
:1009E00012D001F09DF9002214342378002B08D096
:1009F0000123914200DC00231B186560A360ED1801
:100A000001320C34A642F0D101239C464D46E0440D
:100A1000094B3C009C466644BA4501D06744D0E788
:100A200003B0F0BCBB46B246A946A046F0BDC046E6
:100A3000940D0020980D0020140600004061000075
:100A400010B50F2805D80B4B0B4A4343995C00297E
:100A500000D010BD01249C54D318084A800082584D
:100A600019615A60064A136801331360FFF788FF63
:100A7000EFE7C04614060000980D0020A02A0010E1
:100A8000940D002010B50F280CD87F290AD84B00F0
:100A900059180A4B0A4A58438900091853181B7DF4
:100AA000002B00D010BD511801338B821018036940
:100AB00001330361FFF764FFF4E7C046140600004A
:100AC000980D002010B54024084A83009A18126837
:100AD000C0005440C0222240054CA44663441A6022
:100AE000044B9C466044416010BDC04604C00140B8
:100AF00004D00140004001400123D0228340402126
:100B0000120693629361094A83009A181268C00022
:100B10005140C0220A4006498C4663441A60054B86
:100B20009C460523604443607047C04604C00140B2
:100B300004D00140004001400FB400B5084883B024
:100B400001F0E6FD049B002B07D005A918000191D8
:100B500001F07CFC034801F0DBFD012001F08EFC7C
:100B6000E02A0010F02A0010EFF3108072B6034A5A
:100B70001368002BFCD0BFF35F8F70472C0100D0AF
:100B8000BFF35F8F0022024B1A6080F3108870471A
:100B90002C0100D070B5EFF3108C72B60D4D2B68A0
:100BA000002BFCD0BFF35F8F0724CB08C618C05CB6
:100BB00001230C40A3401C000440034207D103431F
:100BC0003370BFF35F8F2C608CF3108870BD100002
:100BD000FFF7B2FF2C0100D0F8B54746CE46884655
:100BE00080B5EFF3108C72B6214D2C68002CFCD030
:100BF000BFF35F8F9A422CD8D4080727055D0619EA
:100C000001241740BC402C421FD0072101278946F0
:100C100009E0D408055D06194C4639001440A1408E
:100C20000C00294211D001329342F2D201204042FD
:100C3000BFF35F8F00220E4B1A608CF310880028E0
:100C40000FDBC0BCB946B046F8BD2C431000347071
:100C5000EEE7BFF35F8F00232B608CF31088012039
:100C600040424346002BECD00898FFF765FFC04692
:100C70002C0100D0044A1078431CDBB2172B00D99A
:100C8000102313707047C046980100200021044BC8
:100C9000044ABFF35F8F02C39342FAD17047C04644
:100CA000000100D0800100D0054B064A1360064ABF
:100CB000136053609360D360136153619361704715
:100CC0008080808000E400E004E400E01F231840FE
:100CD0001E3B8340002905D0C021044A49005350DF
:100CE00013607047802201498B50FAE700E100E071
:100CF00070B50D00EFF3108672B60F4A1368002B23
:100D0000FCD0BFF35F8F0D4B10309B6884001B59E4
:100D10000B4A934203D09D4201D000F0CBFE074B1B
:100D20009B681D51BFF35F8FBFF35F8F0022024BA3
:100D30001A6086F3108870BD240100D000ED00E039
:100D4000C1010010024B9C4661448900016070475C
:100D500040000034F8B5134D134E2C00FF27B54268
:100D60001ED22368002B0FD0FFF784FF010028005C
:100D7000FFF7E8FFA780BFF35F8F0834B4420FD2BC
:100D800023682500002BEFD1FFF774FF0100280036
:100D9000FFF7D8FF2771BFF35F8F0834B442EFD35A
:100DA000F8BDC046E0010020E80100200A4B1968A8
:100DB000EFF3108072B60A68002AFCD0BFF35F8F91
:100DC0001B68BFF35F8F00221A6080F3108840BF5A
:100DD000002000217047C046246F0020F0B5DE4699
:100DE00057464E464546E0B585B0EFF305820323EE
:100DF00013409A0011000392B64A525890460122BD
:100E00009A409146B44B1A604B46B44843634346FC
:100E100008229B5E9A46002B3DDA43469B881BB214
:100E2000002B00DBA1E043469B79002B00D0F3E0D0
:100E3000434608241C5F002C23DB424652696300B2
:100E400094461B19DB0063449C68DD68631C00D179
:100E50000FE1A248039984466144826A0B69A61A8D
:100E60009B1A9E4215D34A46036A1A4211D09B48E8
:100E700000F046FB241A8D41002D02DCC4D1002C69
:100E8000C2D040BF05B0F0BCBB46B246A946A046A2
:100E9000F0BD0C61EBE7424652695B009346534458
:100EA000DB009B445B469E68DF6800F029FB801BEB
:100EB000B9410029B1DB002F00DAE5E05B46884A42
:100EC0001B69934200D1D8E041465A460820085E8B
:100ED0005288000410435A465169984704000D0097
:100EE00023002B4300D1CFE0002D00DBE8E0361BD0
:100EF000AF4134003D005B469C60DD600021595EDF
:100F0000002900DA89E743465B6922009C462B00F2
:100F100048004018C00060448668C768921BBB4107
:100F2000002B00DA79E743466646020000940195FB
:100F300019810CE07B00DB19DB00F31800980199A4
:100F40009C68DD68001BA941002904DB1A0000230E
:100F5000D75E002FEEDA5B461F8053461380434670
:100F60009B881BB2002B00DA5DE743461A69EFF35A
:100F7000108172B61368002BFCD0BFF35F8F43461D
:100F80009B8842461BB29A4601235B4293801369B9
:100F9000BFF35F8F00221A6081F310885346002B45
:100FA00000DA40E743465B699C46082343449B467E
:100FB00053465F0043465744FF0008229A5E674449
:100FC0005E46BC68FD68002A19DB3B000094019571
:100FD00067469C4604E01E000023F25E002A0BDBFD
:100FE0000098019953009B18DB00FB189C68DD6892
:100FF000001BA9410029EEDA6346BC461F00534698
:10100000338000217B5E3A809A46002BD0DA43463B
:101010009B79002B00D10BE7002342469371434696
:1010200046460821595E08364B1C00D129E7474641
:101030008C46556902E006004B1C17D04B005B182C
:10104000DB00E8180A00E95E43881BB2002BF2DAE5
:1010500001235B42DC178360C4606245ECD03180C1
:101060003B89944603803A814B1CE7D1B8466446DD
:10107000E1E66B1C00D0ECE6F9E65B465C6920001B
:1010800023699847002821D15B4642461B8813817B
:101090001269EFF3108372B611680029FCD0BFF318
:1010A0005F8F4246594652880A80424651465180D7
:1010B0001269BFF35F8F0021116083F31088ACE6E3
:1010C000064800F01DFA24184D4114E765682468AD
:1010D00006E7C046106F00203C7005400040054008
:1010E000DD0D001070B52E4C2569002D04D00A21AD
:1010F0002C48FFF727FE70BD2B4E0321300000F077
:10110000F5F9E660FFF7B6FD284B03229C46D02395
:1011100022701B061B6801216370254B6044A3608D
:101120000F23800020610220638063694942A1800F
:1011300019800231198647311D83585218315A528D
:1011400075325C3999521832013199521832013195
:101150009952183201319952083518329D52023194
:10116000183299521832013199521832013199527C
:101170001832013199521832013199521832013125
:1011800099520C4B0C49DC6001303562FFF7B0FD21
:1011900001210320FFF79AFD084B1D60A7E7C04619
:1011A0009C010020246F00200040054040000034D6
:1011B000FFFF1000106F0020DD0D001038600540AB
:1011C00070B5C646010000B50469EFF3108C72B625
:1011D00020680028FCD0BFF35F8F02200D5E4869B5
:1011E0006C0080466419E4004444002D01DB208833
:1011F00048800869BFF35F8F002606608CF3108873
:10120000002D30DBE36063880598013320615B04C7
:1012100006985B0CA26060611A1C002B21D090B272
:101220002B04628018430A69EFF3108672B61368C4
:10123000002BFCD0BFF35F8F8B8823808D800B69E0
:10124000BFF35F8F00221A6086F310880B7801329B
:101250009A40CB6805498C4663441A6040BCB0464E
:1012600070BD0122DBE701204042F7E73C2000008F
:1012700010B543890A14934233DD53009B18426929
:10128000DB00944604696344EFF3108C72B6226865
:10129000002AFCD0BFF35F8F5A88090494B2090C6E
:1012A0008A4208D00369BFF35F8F00221A608CF373
:1012B0001088002010BD8022120214435C8001239C
:1012C00002698371BFF35F8F002111608CF3108876
:1012D000054902788C469340C2680120624413603D
:1012E000E8E70020E6E7C0463C200000F0B5040037
:1012F0000D0006267642F717C64636196F4100B52F
:1013000082B08F4214D811D000F002F932003B00B5
:10131000121A8B41002B15DC002B44D02000290031
:1013200000F02AF902B080BCB846F0BD8642EBD985
:101330000026002700F0ECF832003B00121A8B4127
:10134000002BE9DD00F0E4F832003B00121A8B417B
:10135000002B0ADB00230193144B32000093144846
:101360003B00FFF72DFF0028D8DBB0460026BC4627
:10137000104A114F7B6A9C4504D8B96A8845CDD97B
:101380009C45CBD11168EFF3108072B60B68002B2F
:10139000FCD0BFF35F8F1368BFF35F8F1E6080F3D5
:1013A000108820BFE6E7002AB8D0CBE7AD0D0010CB
:1013B0009C010020246F00200040054070B506000D
:1013C00000F0A6F8FA2204000D00002330000021EE
:1013D000920000F06BFF00196941002902DBFFF762
:1013E00085FF70BD012001494042F8E7FFFFFF7F04
:1013F000F0B5CE46474680B504000D0083B0EFF34C
:101400000587002F0DD0364A0020536A8B4203D344
:10141000926A0130A24250D303B0C0BCB946B04674
:10142000F0BD304B9846DB689946434648461E78E7
:1014300000F066F80B00494602000436B600715809
:1014400020008E1A2900801A99418F4211DC0ED09B
:1014500020BF234A0020536AAB42DDD3926A013099
:10146000A242D9D2E81A421E9041C0B2D4E78642C5
:10147000EED900F04DF822002B00121A8B41002B00
:1014800020DB00230193184B2200009340462B00E1
:10149000FFF796FE011E15DD114B2E005A6A95428C
:1014A0001CD89B6AA34217D34046FFF7E1FE0C4AC3
:1014B0000020536A9E42AFD8D0E7581A421E90418E
:1014C000C0B2A9E7064A0020536AAB42A4D3926A8D
:1014D0000120A242A0D2C5E79542E5D120BFE3E7B3
:1014E000004005409C010020AD0D001010B5024ADF
:1014F0000248FFF74FFB10BDF42A0010D86E002001
:101500000300416A0A00986A596A8A42FAD1704710
:10151000034B596A0A00986A596A9142FAD1704796
:101520000040054070B504000D00124A536A1900CE
:10153000966A536A8B42FAD13000190024184D4143
:10154000AB4211D80ED02B000A494A6A9A42FCD30A
:1015500007D1084A02E0516A994202D1916AA14238
:10156000F9D370BDA642EED9012301246442E517E8
:101570005B42E9E700400540064A536A9942FCD8BD
:1015800007D1044B02E05A6A914202D19A6A824220
:10159000F9D3704700400540F8B5040006200D005F
:1015A00000F0E2F9002842D0364B3749E2185342A6
:1015B0005A418023DB039C469205344B62441A60F7
:1015C000334B1A6010000B689843FBD12D4B8021E0
:1015D000E3185A4253412F4A5B00490099520620B2
:1015E00000F0C2F92900C00000F0C2FB0130C309BD
:1015F0001ED1402701226262A362266BF30722D428
:10160000E36A254B0620E51800232B60266300F0D3
:10161000ABF93900800000F0ABFB7022E36A5A405E
:101620007E2313402B601D4B23630323A364F8BD6B
:101630001B4A93421ED900231A4A1B4F6262A362BF
:10164000266BF307DCD5194B144AE3181A60656A58
:10165000A26A0620AD01AD1800F086F9144900F029
:1016600087FBAD020100280000F082FB0021FFF79C
:1016700059FFC5E74006800E9F011A003F1803007E
:10168000B9E7C0460080FCBF08C0004000E0004051
:1016900000F00040286F00202C1000000103000023
:1016A000FEFF0000FFFF0000C0FF3F0030300000E1
:1016B0004E0E00000539013AF8B5D2004C01050084
:1016C0001443002B05D002222243012B24D10533E1
:1016D0001C432E6BF30708D4EA6A104B62406E2459
:1016E000EB1814401C602E63F8BD0D4B0D4AEB182F
:1016F0001A606F6AAA6A0620BF01BF1800F034F9A9
:10170000094900F035FBBF020100380000F030FB52
:101710000021FFF707FFDFE71400DAE72C100000D5
:1017200030300000010300004E0E0000F8B54B1EE3
:101730009941066B05000C01F30708D41023E96AF0
:101740004C401C400D4BEB181C602E63F8BD0C4B3D
:101750000C4AC3181A60476A826ABF010620BF1884
:1017600000F002F9084900F003FBBF020100380055
:1017700000F0FEFA0021FFF7D5FEDFE72C10000095
:1017800030300000010300004E0E0000F8B5DE46C8
:101790004E4657464546E0B58B4605000A99180067
:1017A000160000F0E5FA0A9B6C001F02324B641928
:1017B0009C46A4006444636881469F4200D96760E8
:1017C0002B1FDBB29846012B30D9C02380229B010E
:1017D000E31812011A60294BAD0059599A460029A5
:1017E0001BD1226876017240E026802316404246D3
:1017F0005B01E3181E60012A30D9802380229B01FF
:10180000E31812011A6053464A4667605A51F0BC09
:10181000BB46B246A946A046F8BD586900F0A8FAF2
:10182000431C5800C0180338FDD2DAE75B46012B91
:10183000CBD1C02303229B01E3181A60023AA368AC
:101840001A42FCD0E0232268760156401E408023D5
:101850000A4A5B019246E3181E60AD005A462168B1
:10186000514003220A401A6001225B469A40A36855
:101870001A42FCD0C1E7C04600800040DC6E002068
:10188000F0B546464F46D646C0B51F00344B44001F
:101890009C462418A4006444636888461600FF2B05
:1018A00002D880235B006360031FDBB29A46012BE2
:1018B00030D9C02380229B01E31812011A60294B02
:1018C00085005959994600291BD12268760172403A
:1018D000E0268023164052465B01E3181E60012A71
:1018E00030D9802380229B01E31812011A608023E3
:1018F0005B0063604B465F51E0BCBA46B146A84608
:10190000F0BD586900F034FA431C5800C018033881
:10191000FDD2DAE74346012BCBD1C02303229B0142
:10192000E3181A60023AA3681A42FCD0E023226846
:10193000760156401E4080230A4A5B019146E31817
:101940001E60850042462168514003220A401A6009
:10195000012342469340A2681342FCD0C1E7C0462F
:1019600000800040DC6E0020014B8000C0587047B2
:10197000DC6E0020F8B5040020481D0017000E00A2
:1019800000F0F6F90100380000F0F2F9069B290496
:101990001B0319432368002B1EDB194B194DE2185A
:1019A00053425A4180235B019C461203164B62440A
:1019B0001A60164B1A6017002B689F43FBD1144B1B
:1019C0002660E2182123A06013602368002BFCDA54
:1019D0000823E1601360F8BD3F2322681340B3423F
:1019E000DBD1A3681B051B0D8342D6D1EE22E36831
:1019F000D20213408B42D0D1EDE7C046001BB700A6
:101A00000040FDBF08C0004000E0004000F0004082
:101A1000043000008023024A9B000B43D3627047CE
:101A200000800540142310B50100188804331B887A
:101A3000984710BD162310B50100188802331B8883
:101A4000984710BDF8B54746CE4680B50F1E19D051
:101A500014239946043304000025012698464B467A
:101A60001888434621681B88984701C4431E984143
:101A7000013540420640AF42F1D13000C0BCB9460A
:101A8000B046F8BD0126F8E7AA23064A1B011360F9
:101A90008D235B00D3600449044B19605368002B0D
:101AA000FCDA70470040024000B0FA0000600240DB
:101AB0007047C04610B50148FFF73EF8182B0010DC
:101AC00070B5074D074EB54209D20024013E761B82
:101AD000B60808CD984723000134B342F9D170BD50
:101AE000502A00108C2A0010054B064A06491A603D
:101AF000064A074B1A6010000B689843FBD17047E9
:101B000000E00040BFCDFBFE08C00040FE7F3C006F
:101B100000F00040044BDB6C002B03D18022034B10
:101B2000D2021A607047C046000011504C2011507C
:101B3000044A054B1A60054A1368DB018033FBD168
:101B40007047C046FFFFFF0100F0004008C00040A2
:101B50004022034B9A675A671A67DA667047C04695
:101B600000F0014010B5FFF791F810BDF8B52D4910
:101B70002D4C2E4D641AA6103200302E00D9302282
:101B80002800920000F054FCBC2C41D80123711CA9
:101B900008009C46264A30293DD92F272C19640776
:101BA000E30FBF1B052F19D9302917D8002B36D0CA
:101BB000B1006A506146CC1AF3189B006108EB181B
:101BC000C900C9181A605A6008338B42FAD1012340
:101BD0002100994346188C421AD0711CB300EA5078
:101BE000302915D089006A50B31C2E2E10D09B00CE
:101BF000EA50F31C2D2E0BD09B00EA50331D2C2EE7
:101C000006D09B00EA50731D2B2E01D09B00EA509A
:101C1000084B9D60F8BD2F339B1B9C46BDE73000F1
:101C2000C8E7C04600010010C001001000000020FD
:101C3000C101001000ED00E0002310B5294C82B076
:101C4000A367FFF721FF0122274B1A60636C012B6A
:101C5000FCD10322254B1A60224A936B012BFCD145
:101C6000013300930121224A22480433FFF782FE08
:101C7000052301210093204A2048FFF77BFE002224
:101C8000022104201E4BFFF7FBFD0022012105204D
:101C90001C4BFFF7F5FD0022002107201A4BFFF730
:101CA000EFFD002200210820174BFFF7E9FD8023FC
:101CB000DB000093002200210920134BFFF766FD93
:101CC0000022104B00210620FFF7DAFD0420FFF769
:101CD0004BFE0E4900F04CF801000020FFF79AFE81
:101CE00002B010BD008000403CB0004030B0004069
:101CF000002F685900800240008C864700C00240D7
:101D0000001BB70040597307006CDC0240420F0013
:101D100001480421014B1847C0010020451A00105A
:101D2000124A936F9B0815D29066D166002905D0A0
:101D3000FFE7FFE7FFE7516F106F704704B58021A1
:101D40000906C2175140002800D0C84300F070FEB9
:101D5000002104BDF0B5146E556E576F166FFFF776
:101D6000E3FF1466556657671667F0BD000000D0A4
:101D7000114A936F9B0813D210665166002905D053
:101D8000FFE7FFE7FFE7516F106F704704B50028CA
:101D900001D00020C04300F04BFE002104BDC0462E
:101DA000F0B5146E556E576F166FFFF7E5FF1466AA
:101DB000556657671667F0BD000000D094464A4A42
:101DC000926F9208624601D228E0C046F0B5464EB6
:101DD000346E756E776F366F00F020F89446424A85
:101DE00014665566576716676246F0BD94463E4ACC
:101DF000926F9208624601D254E0C046F0B53A4E66
:101E0000346E756E776F366F00F04CF89446364A34
:101E100014665566576716676246F0BD002B24DBD3
:101E200011D000293EDA00B5C943404200D101314A
:101E300000F038F8C943404200D10131DB4352423F
:101E400000D1013300BD002AEBD1002801D10029C7
:101E500005D00020C90FC90701D1C043410800B512
:101E600000F0DEFD0022002300BD00B500290ADBE2
:101E7000DB43524200D1013300F014F8C943404221
:101E800000D1013100BDC943404200D10131DB43E3
:101E9000524200D1013300F005F8DB43524200D139
:101EA000013300BD002923D1002B18D1002A0CD00A
:101EB000BC460D4F38667A6600210023FFE7FFE736
:101EC000FFE77A6F386F67467047002801D00748F0
:101ED000010000B500F0A4FD0022002300BD0200B7
:101EE0000B00002000217047000000D0FFFFFFFF23
:101EF000002B00D0BFE0130C28D1002AE7D080B41B
:101F0000114F39667A66FFE7FFE730B4040C7B6F48
:101F1000396F1B0423433B667A66FFE7FFE7FFE761
:101F2000C04684B27B6F3D6F1B0423433B667A66D9
:101F3000FFE7FFE7C04600232C042D0C7A6F386FB3
:101F400000196941B0BC7047000000D0F0B594465C
:101F50000025140E01D112020835140F01D112010F
:101F60000435940F01D192000235D40F01D15200F3
:101F70000135D40B0134254F7C66254C3C660E0C94
:101F800093B2FFE7FFE7FFE73C6F6643360C77034A
:101F9000BE467343DF0B5B04C01AB941130C734395
:101FA000DB18C91ACE086643360CB64493B27343A5
:101FB0001F0F1B01C01AB941130C73431F0B1B05E4
:101FC000C01AB941860D8F023E436643360C092D77
:101FD00024DB520A7243801A7703460A6643360CA2
:101FE00016235B1BDE40DF40BF1964466643821B3D
:101FF0007046043506330100D940A840C01900D30B
:102000000131A24206D20023F0BD0000000000D042
:10201000FFFFFFFF121B0130F3D3F1E709277F1BFE
:10202000FE406446A2B27243801A00D20139220CEB
:102030007243130C1204821A99410B007046043546
:1020400013370100F940A840801900D30131002B5B
:1020500002D1A2420AD2F0BD013000D30131121BDD
:10206000FAD2013BF8D1A24200D2F0BD013000D338
:102070000131121BF7E7F0B51C0C00D080E00CB466
:1020800000251C0A04D11B02160E33431202083528
:102090001C0B04D11B01160F3343120104359C0B9A
:1020A00004D19B00960F334392000235DC0B02D122
:1020B00092185B4101351C00971864410134464F6A
:1020C0007C66464C3C660E0CFFE7FFE7FFE7C04628
:1020D0003C6F6643360C7703BE4697B27743C01B0E
:1020E00000D20139C01B00D201399FB27743C91B0E
:1020F000C91B170C77437E04FF0B801BB941CE0828
:102100006643360C0C2D33DBB644120B1F053A43E5
:102110001B0B97B27743C01B00D201399FB27743A4
:10212000C91B170C77433E043F0C801BB941860D39
:102130008F023E43664329277F1BFE400C3D7746B6
:10214000AF40BF1930BCA2B2ABB272437343801A26
:102150009941220C7243130C1204801A9941020017
:102160000B000137001BA941F9D2781E0021F0BDF8
:102170000C277F1BFE4077467F0BAF40FF19E0E73F
:1021800000245D1C07D0144F7D663966FFE7FFE72A
:10219000FFE7FFE73C6F95B29EB265436643401B85
:1021A000B141150C1E0C6543664336042F0C3E43AB
:1021B0002D04401BB141994204D202000B002000C3
:1021C0000021F0BD01D19042F7D3801A994101342A
:1021D0009942F2D3F6E70000000000D0FFFFFFFFB6
:1021E000132370B51D78012D19D014DD1E48FFF79B
:1021F00021FC06001D48FFF71DFC1D4C802231000C
:10220000200000F015F9022D06D01A48FFF70AFC4D
:10221000194B186070BD164C184BA364F5E7174BAB
:10222000134C23606360A360E36023616361A36177
:10223000E36123626362A362E36223636363A36374
:10224000E36323646364A364E36423656365A36554
:10225000E36523666366A366E36623676367A36734
:10226000E367A364D1E7C04653440000534600002F
:10227000680300204C330000206F002081220010F2
:1022800007B5604601880A0A0230DF2AFAD1C9B2CE
:10229000820804D3028840880004104300E00068EC
:1022A000014A5050039007BD680300205143434347
:1022B000C9188C46110C83B24B4310B4040C614313
:1022C00092B280B2504362431C041B0C001910BC34
:1022D00059411304120CC018514161447047000069
:1022E0004840414048400E4B5B6818470C4B1B6808
:1022F00018470C4A936F9B0802D2094BDB681847BA
:10230000F0B5146E556E576F166FFFF7F6FF054A5E
:102310001466556657671667F0BD014B9B681847F2
:1023200068040020000000D0491A002808D108469F
:1023300070470000C10FC90700D54042002817D0E0
:10234000F44603B40B4B1B68984706BC81409E388B
:102350004042803107D20B0607D04900490AC00528
:102360001043084360470130F8E7490A8902F5E75E
:1023700070470000206F0020014B5B6A1847000087
:1023800068040020132310B512481C78FFF752FB95
:102390000100012C0AD003DD80220F4800F048F82C
:1023A0000E48FFF73FFB0E4B186010BD0A4C54223D
:1023B000200000F03DF80B4B6365A365E3652366E1
:1023C0006366A366E36623676367A367E3672362C5
:1023D000E361E5E753460000680400204C33000049
:1023E000206F0020E923001007B5604601880A0A23
:1023F0000230DF2AFAD1C9B2820804D302884088A9
:102400000004104300E00068014A5050039007BDEB
:102410006804002001480421014B1847D001002026
:10242000451A0010014B1B6818470000D00100201E
:10243000014B5B6818470000D001002010B5002850
:1024400000D110BD00F018F9FBE7C04610B5094AED
:102450000300146884B0002C08D0012200910648C3
:10246000524203A9A047012004B010BD00F050F96A
:102470000020F9E70C6F00203D24001000BEFDE7AE
:1024800010B5FFF7FBFFC04670B5FFF719FB074D0E
:10249000074EB54209D20024013E761BB60808CD8E
:1024A000984723000134B342F9D170BD8C2A001043
:1024B000902A0010030010B5080011001B6898470F
:1024C00010BDC046F0B546464F46D646C0B5437D22
:1024D00080460E001700002B46D0002A3FDD4B1E21
:1024E0009946244B0125002400209A460DE04B46D6
:1024F0001B5D0D3B5A425341325DDBB20A2A0BD0C1
:102500002B00013401359F421ADD002CEFD14346E8
:10251000325D1B7D0A2AF3D1002BF1D1A04204DAEF
:102520004346211A1B6830189847434650461B689B
:1025300002219847013428002B0001359F42E4DC3A
:10254000874204DD4346391A1B6830189847F6194C
:10255000013E33780D3B5A42534142461375E0BC6D
:10256000BA46B146A846F0BD03681100300098474E
:10257000F5E7C046B82B0010F0B5DE4657464E468C
:102580004546E0B585B017001C0006000D00FEF7BB
:10259000BFFF0023314A12184B41002B59DB304951
:1025A00008008A4600F04CFA01906B1C03D1300001
:1025B00000F0FEF90500002C26D12A4B98462A4B44
:1025C0001C68002C15D0002F21D1284F02E024696F
:1025D000002C0ED02368002BF9D03B68002B01D0D3
:1025E000A342F4D120002A003100C0472469002C06
:1025F000F0D1019B002B28D1280005B0F0BCBB46D0
:10260000B246A946A046F0BD194B9846D7E7174BEE
:10261000994602ABDF1D0A239B4602E02469002C89
:10262000E7D02368002BF9D04B461B68002B01D064
:10263000A342F3D12A0031002000C0475B460122AB
:10264000390020003B70C047E8E7504600F0E0F951
:10265000D2E70122074B5242A1E7C04640420F0099
:10266000E0010020B5240010046F0020086F002056
:10267000C5240010FFFFFF7FF0B5CE46474680B56A
:1026800083B06B460600DD1D2870FEF741FF002376
:102690001A4A12184B41002B2BDB194908008846B7
:1026A00000F0CEF9174B81461C68002C14D0164F51
:1026B00002E02469002C0FD02368002BF9D03B687E
:1026C000002B01D0A342F4D1200001222900FFF702
:1026D000F9FE2469002CEFD14B46002B05D13000C8
:1026E00003B0C0BCB946B046F0BD404600F090F91A
:1026F000F5E70122054B5242CFE7C04640420F00AA
:10270000E0010020046F0020086F0020FFFFFF7F22
:1027100070B5040000F04CF901230100050001220E
:102720002000FFF729FF084B1C68002C06D06368C7
:10273000002B05D098472469002CF8D1280070BDE3
:102740002469002CF3D1F9E7046F0020F0B5DE46D0
:1027500045464E4657468846E0B583B005000524F9
:102760000190FEF701FA424611791457324A2B00C4
:10277000944663441B0D9B009C46304A81461300DF
:1027800093466246985801238B400090013B002CF1
:1027900033DB2022521A944222DCA34018421FD17C
:1027A0004246126825009246424692791E00002A4F
:1027B0003ED1002200290DD057465300FF5A7B0B13
:1027C00000D17F19AB18019812339B0001321F50C2
:1027D0008A42F1D35B46624600983043985001E04C
:1027E000012464424846FEF7CBF9200003B0F0BC58
:1027F000BB46B246A946A046F0BD2024641A0DD4BB
:102800001E00A6402500064206D10AE01E00A64092
:10281000009A2500164204D0013CF7D209246442F4
:10282000E0E743461B689A4643469B79002BC0D09D
:1028300014246442D6E7C0460000E0AF8C0D0020AF
:10284000F0B54E464546DE465746E0B583B089466C
:102850000CA90D7801901F2A48D84946490088469E
:102860004944C900461837003400DC373868CC3496
:1028700083462068310082461E4880248446A40294
:1028800061440C60691E8D411F216D420D401A4943
:102890008C466544052B0ED9A02149058C461F2185
:1028A000D8366046540104430532053B3C600A407B
:1028B0003560052BF5D8414652019B061343494428
:1028C000019AC90050180200DC3213600300D833AB
:1028D0001D605B4613605346CC300360002003B09C
:1028E000F0BCBB46B246A946A046F0BD052040421A
:1028F000F5E7C046CC30000080E00000F0B50124D0
:102900008C401D000368A34303604B005C18E40087
:1029100004192600C836002D28D02F68DC34376013
:10292000AF68043677606F68ED6837602560164DD4
:102930005B18AC468025DB00C41864442D06256076
:102940002560124C0D1D8C40846001242600AE4091
:10295000802508318C401F21AD014519C0180A405F
:10296000D8302E602C6002600020F0BD80277F02EE
:102970003760C0273F03B760F82704367F02DC3496
:1029800037602560D3E7C046D01000000101010187
:1029900000B5054B83B00100009300220B230348D0
:1029A000FEF71AF903B000BDBC2B00102C6F0020FD
:1029B00010B583070AD00300032102E001330B4264
:1029C00005D01A78002AF9D1181A10BD0300196829
:1029D0000C4A0D4C8A188A4322420FD15968094A81
:1029E00004338A188A43224208D15968054A0433BD
:1029F0008A188A432242F1D000E001331A78002A73
:102A0000FBD1E1E7FFFEFEFE80808080F8B5C04686
:102A100001B40248844601BC604700BF5D0100204C
:102A200001B40248844601BC604700BF8501002014
:102A300001B40248844601BC604700BF8501002004
:102A400001B40248844601BC604700BFC1000020B9
:102A5000E91A0010151B0010111D0010152400109C
:102A6000E121001085230010391C0010311B0010DB
:102A7000511B0010651B0010550D00106D1B001040
:102A8000E5100010B11A0010A90C0010FD02001092
:102A9000982A001004FF000021622311001442A4B0
:102AA0000000CC0000CC66000066CC006600CC00C4
:102AB00000CC000066CC0000CC00CC006600CC004E
:102AC000CC000000CC006600CC00CC0066006600A4
:102AD000006633006633000033003300666633005F
:102AE0000A2A2A2A2050414E4943202A2A2A0A002B
:102AF0000A000000486172647761726520616C6150
:102B0000726D20256420616C726561647920636C4C
:102B100061696D65640000004861726420617373CF
:102B20006572740052656C6561736500626F6F74E5
:102B3000325F77323571303830000000322E322E5D
:102B4000300000007069636F000000006D69646907
:102B50005F6C656473000000466562203138203286
:102B60003032360005005250DE65F468202D00102A
:102B7000060052505422A29D582B001006005250BD
:102B8000861C03024C2B001006005250BBFF3CB6C3
:102B9000442B001006005250ABB360533C2B001086
:102BA00006005250E182887F2C2B00100600525004
:102BB000D3F07542242B00100D0A00004E6F204404
:102BC0004D41206368616E6E656C73206172652093
:0C2BD000617661696C61626C6500000058
:102BDC00642B0010702B00107C2B0010882B001025
:0C2BEC00942B0010A02B0010AC2B00104C
:102BF800F0B5C646150000B504001E000268EFF3E4
:102C0800108172B61368002BFCD0BFF35F8F0423CA
:102C1800E356002B2DDB2268BFF35F8F0020106086
:102C280081F31088D0221206127852B290469A4246
:102C380003D1002080BCB846F0BD00270BE0236814
:102C4800BFF35F8F1F6081F310882800310000F008
:102C580033F80028EDD12268EFF3108172B61368BB
:102C6800002BFCD0BFF35F8F23797F2BE7D9434636
:102C780002E0D0231B061B6823712368BFF35F8F14
:102C880000221A6081F310880120D3E70268EFF36D
:102C9800108172B61368002BFCD0BFF35F8FFF233F
:102CA80003710368BFF35F8F00221A6081F31088F5
:102CB80040BF70477047C04601B40248844601BC13
:102CC800604700BFF1130010100000000000000072
:102CD80000000000000000000000000000000000EC
:102CE800E8010020000000000000000000000000D3
:102CF800503300004C3300005433000052330000BE
:102D08004D5300004D43000053340000433400008D
:082D18000000000000000000B3
:04000005100001E9FD
:00000001FF
